{
    "abi": [
        {
            "type": "constructor",
            "inputs": [
                {
                    "name": "_priceFeedAddress",
                    "type": "address",
                    "internalType": "address"
                },
                {
                    "name": "_vrfCoordinator",
                    "type": "address",
                    "internalType": "address"
                },
                {
                    "name": "_keyHash",
                    "type": "bytes32",
                    "internalType": "bytes32"
                },
                {
                    "name": "_subscriptionId",
                    "type": "uint256",
                    "internalType": "uint256"
                },
                {
                    "name": "_callbackGasLimit",
                    "type": "uint32",
                    "internalType": "uint32"
                }
            ],
            "stateMutability": "nonpayable"
        },
        {
            "type": "function",
            "name": "acceptOwnership",
            "inputs": [],
            "outputs": [],
            "stateMutability": "nonpayable"
        },
        {
            "type": "function",
            "name": "finalizeExpired",
            "inputs": [
                {
                    "name": "identifier",
                    "type": "bytes32",
                    "internalType": "bytes32"
                },
                {
                    "name": "id",
                    "type": "uint64",
                    "internalType": "uint64"
                }
            ],
            "outputs": [],
            "stateMutability": "nonpayable"
        },
        {
            "type": "function",
            "name": "finalized",
            "inputs": [
                {
                    "name": "",
                    "type": "bytes32",
                    "internalType": "bytes32"
                },
                {
                    "name": "",
                    "type": "uint64",
                    "internalType": "uint64"
                }
            ],
            "outputs": [
                {
                    "name": "",
                    "type": "bool",
                    "internalType": "bool"
                }
            ],
            "stateMutability": "view"
        },
        {
            "type": "function",
            "name": "getAuditor",
            "inputs": [
                {
                    "name": "auditor",
                    "type": "address",
                    "internalType": "address"
                }
            ],
            "outputs": [
                {
                    "name": "",
                    "type": "tuple",
                    "internalType": "struct AuditorRegistry.Auditor",
                    "components": [
                        {
                            "name": "isActive",
                            "type": "bool",
                            "internalType": "bool"
                        },
                        {
                            "name": "auditorAddress",
                            "type": "address",
                            "internalType": "address"
                        },
                        {
                            "name": "reputationScore",
                            "type": "uint256",
                            "internalType": "uint256"
                        },
                        {
                            "name": "stakedTokens",
                            "type": "uint256",
                            "internalType": "uint256"
                        },
                        {
                            "name": "name",
                            "type": "string",
                            "internalType": "string"
                        }
                    ]
                }
            ],
            "stateMutability": "view"
        },
        {
            "type": "function",
            "name": "getVerificationAssignments",
            "inputs": [
                {
                    "name": "identifier",
                    "type": "bytes32",
                    "internalType": "bytes32"
                },
                {
                    "name": "id",
                    "type": "uint64",
                    "internalType": "uint64"
                }
            ],
            "outputs": [
                {
                    "name": "",
                    "type": "address[]",
                    "internalType": "address[]"
                }
            ],
            "stateMutability": "view"
        },
        {
            "type": "function",
            "name": "getVerificationDeadline",
            "inputs": [
                {
                    "name": "identifier",
                    "type": "bytes32",
                    "internalType": "bytes32"
                },
                {
                    "name": "id",
                    "type": "uint64",
                    "internalType": "uint64"
                }
            ],
            "outputs": [
                {
                    "name": "",
                    "type": "uint256",
                    "internalType": "uint256"
                }
            ],
            "stateMutability": "view"
        },
        {
            "type": "function",
            "name": "getVerifications",
            "inputs": [
                {
                    "name": "identifier",
                    "type": "bytes32",
                    "internalType": "bytes32"
                },
                {
                    "name": "id",
                    "type": "uint64",
                    "internalType": "uint64"
                }
            ],
            "outputs": [
                {
                    "name": "",
                    "type": "tuple[]",
                    "internalType": "struct AuditorRegistry.Verification[]",
                    "components": [
                        {
                            "name": "isValid",
                            "type": "bool",
                            "internalType": "bool"
                        },
                        {
                            "name": "auditor",
                            "type": "address",
                            "internalType": "address"
                        },
                        {
                            "name": "timestamp",
                            "type": "uint256",
                            "internalType": "uint256"
                        }
                    ]
                }
            ],
            "stateMutability": "view"
        },
        {
            "type": "function",
            "name": "owner",
            "inputs": [],
            "outputs": [
                {
                    "name": "",
                    "type": "address",
                    "internalType": "address"
                }
            ],
            "stateMutability": "view"
        },
        {
            "type": "function",
            "name": "rawFulfillRandomWords",
            "inputs": [
                {
                    "name": "requestId",
                    "type": "uint256",
                    "internalType": "uint256"
                },
                {
                    "name": "randomWords",
                    "type": "uint256[]",
                    "internalType": "uint256[]"
                }
            ],
            "outputs": [],
            "stateMutability": "nonpayable"
        },
        {
            "type": "function",
            "name": "registerAuditor",
            "inputs": [
                {
                    "name": "name",
                    "type": "string",
                    "internalType": "string"
                }
            ],
            "outputs": [],
            "stateMutability": "payable"
        },
        {
            "type": "function",
            "name": "requestVerification",
            "inputs": [
                {
                    "name": "identifier",
                    "type": "bytes32",
                    "internalType": "bytes32"
                },
                {
                    "name": "id",
                    "type": "uint64",
                    "internalType": "uint64"
                },
                {
                    "name": "deadline",
                    "type": "uint256",
                    "internalType": "uint256"
                }
            ],
            "outputs": [],
            "stateMutability": "nonpayable"
        },
        {
            "type": "function",
            "name": "requests",
            "inputs": [
                {
                    "name": "",
                    "type": "uint256",
                    "internalType": "uint256"
                }
            ],
            "outputs": [
                {
                    "name": "identifier",
                    "type": "bytes32",
                    "internalType": "bytes32"
                },
                {
                    "name": "id",
                    "type": "uint64",
                    "internalType": "uint64"
                },
                {
                    "name": "deadline",
                    "type": "uint256",
                    "internalType": "uint256"
                }
            ],
            "stateMutability": "view"
        },
        {
            "type": "function",
            "name": "s_vrfCoordinator",
            "inputs": [],
            "outputs": [
                {
                    "name": "",
                    "type": "address",
                    "internalType": "contract IVRFCoordinatorV2Plus"
                }
            ],
            "stateMutability": "view"
        },
        {
            "type": "function",
            "name": "setCoordinator",
            "inputs": [
                {
                    "name": "_vrfCoordinator",
                    "type": "address",
                    "internalType": "address"
                }
            ],
            "outputs": [],
            "stateMutability": "nonpayable"
        },
        {
            "type": "function",
            "name": "transferOwnership",
            "inputs": [
                {
                    "name": "to",
                    "type": "address",
                    "internalType": "address"
                }
            ],
            "outputs": [],
            "stateMutability": "nonpayable"
        },
        {
            "type": "function",
            "name": "verify",
            "inputs": [
                {
                    "name": "identifier",
                    "type": "bytes32",
                    "internalType": "bytes32"
                },
                {
                    "name": "id",
                    "type": "uint64",
                    "internalType": "uint64"
                },
                {
                    "name": "isValid",
                    "type": "bool",
                    "internalType": "bool"
                }
            ],
            "outputs": [],
            "stateMutability": "nonpayable"
        },
        {
            "type": "event",
            "name": "AuditorRegistered",
            "inputs": [
                {
                    "name": "auditor",
                    "type": "address",
                    "indexed": true,
                    "internalType": "address"
                },
                {
                    "name": "name",
                    "type": "string",
                    "indexed": false,
                    "internalType": "string"
                },
                {
                    "name": "stakedTokens",
                    "type": "uint256",
                    "indexed": false,
                    "internalType": "uint256"
                }
            ],
            "anonymous": false
        },
        {
            "type": "event",
            "name": "AuditorSlashed",
            "inputs": [
                {
                    "name": "auditor",
                    "type": "address",
                    "indexed": true,
                    "internalType": "address"
                },
                {
                    "name": "amount",
                    "type": "uint256",
                    "indexed": false,
                    "internalType": "uint256"
                }
            ],
            "anonymous": false
        },
        {
            "type": "event",
            "name": "CoordinatorSet",
            "inputs": [
                {
                    "name": "vrfCoordinator",
                    "type": "address",
                    "indexed": false,
                    "internalType": "address"
                }
            ],
            "anonymous": false
        },
        {
            "type": "event",
            "name": "OwnershipTransferRequested",
            "inputs": [
                {
                    "name": "from",
                    "type": "address",
                    "indexed": true,
                    "internalType": "address"
                },
                {
                    "name": "to",
                    "type": "address",
                    "indexed": true,
                    "internalType": "address"
                }
            ],
            "anonymous": false
        },
        {
            "type": "event",
            "name": "OwnershipTransferred",
            "inputs": [
                {
                    "name": "from",
                    "type": "address",
                    "indexed": true,
                    "internalType": "address"
                },
                {
                    "name": "to",
                    "type": "address",
                    "indexed": true,
                    "internalType": "address"
                }
            ],
            "anonymous": false
        },
        {
            "type": "event",
            "name": "VerificationFinalized",
            "inputs": [
                {
                    "name": "identifier",
                    "type": "bytes32",
                    "indexed": true,
                    "internalType": "bytes32"
                },
                {
                    "name": "id",
                    "type": "uint64",
                    "indexed": true,
                    "internalType": "uint64"
                },
                {
                    "name": "consensus",
                    "type": "bool",
                    "indexed": false,
                    "internalType": "bool"
                }
            ],
            "anonymous": false
        },
        {
            "type": "event",
            "name": "VerificationRequested",
            "inputs": [
                {
                    "name": "identifier",
                    "type": "bytes32",
                    "indexed": true,
                    "internalType": "bytes32"
                },
                {
                    "name": "id",
                    "type": "uint64",
                    "indexed": true,
                    "internalType": "uint64"
                },
                {
                    "name": "assignedAuditors",
                    "type": "address[]",
                    "indexed": false,
                    "internalType": "address[]"
                },
                {
                    "name": "deadline",
                    "type": "uint256",
                    "indexed": false,
                    "internalType": "uint256"
                }
            ],
            "anonymous": false
        },
        {
            "type": "event",
            "name": "VerificationSubmitted",
            "inputs": [
                {
                    "name": "identifier",
                    "type": "bytes32",
                    "indexed": true,
                    "internalType": "bytes32"
                },
                {
                    "name": "id",
                    "type": "uint64",
                    "indexed": true,
                    "internalType": "uint64"
                },
                {
                    "name": "auditor",
                    "type": "address",
                    "indexed": true,
                    "internalType": "address"
                },
                {
                    "name": "isValid",
                    "type": "bool",
                    "indexed": false,
                    "internalType": "bool"
                }
            ],
            "anonymous": false
        },
        {
            "type": "error",
            "name": "AuditorRegistry__AlreadyFinalized",
            "inputs": [
                {
                    "name": "",
                    "type": "bytes32",
                    "internalType": "bytes32"
                },
                {
                    "name": "",
                    "type": "uint64",
                    "internalType": "uint64"
                }
            ]
        },
        {
            "type": "error",
            "name": "AuditorRegistry__AlreadyRegistered",
            "inputs": [
                {
                    "name": "",
                    "type": "address",
                    "internalType": "address"
                }
            ]
        },
        {
            "type": "error",
            "name": "AuditorRegistry__AlreadyVerified",
            "inputs": [
                {
                    "name": "",
                    "type": "address",
                    "internalType": "address"
                }
            ]
        },
        {
            "type": "error",
            "name": "AuditorRegistry__DeadlineExpired",
            "inputs": [
                {
                    "name": "",
                    "type": "bytes32",
                    "internalType": "bytes32"
                },
                {
                    "name": "",
                    "type": "uint64",
                    "internalType": "uint64"
                }
            ]
        },
        {
            "type": "error",
            "name": "AuditorRegistry__InvalidAmount",
            "inputs": [
                {
                    "name": "",
                    "type": "address",
                    "internalType": "address"
                }
            ]
        },
        {
            "type": "error",
            "name": "AuditorRegistry__InvalidAuditor",
            "inputs": [
                {
                    "name": "",
                    "type": "address",
                    "internalType": "address"
                }
            ]
        },
        {
            "type": "error",
            "name": "AuditorRegistry__InvalidDeadline",
            "inputs": []
        },
        {
            "type": "error",
            "name": "AuditorRegistry__NotAssigned",
            "inputs": [
                {
                    "name": "",
                    "type": "address",
                    "internalType": "address"
                }
            ]
        },
        {
            "type": "error",
            "name": "AuditorRegistry__NotEnoughAuditor",
            "inputs": []
        },
        {
            "type": "error",
            "name": "AuditorRegistry__VerificationNotExpired",
            "inputs": [
                {
                    "name": "",
                    "type": "bytes32",
                    "internalType": "bytes32"
                },
                {
                    "name": "",
                    "type": "uint64",
                    "internalType": "uint64"
                }
            ]
        },
        {
            "type": "error",
            "name": "OnlyCoordinatorCanFulfill",
            "inputs": [
                {
                    "name": "have",
                    "type": "address",
                    "internalType": "address"
                },
                {
                    "name": "want",
                    "type": "address",
                    "internalType": "address"
                }
            ]
        },
        {
            "type": "error",
            "name": "OnlyOwnerOrCoordinator",
            "inputs": [
                {
                    "name": "have",
                    "type": "address",
                    "internalType": "address"
                },
                {
                    "name": "owner",
                    "type": "address",
                    "internalType": "address"
                },
                {
                    "name": "coordinator",
                    "type": "address",
                    "internalType": "address"
                }
            ]
        },
        {
            "type": "error",
            "name": "ZeroAddress",
            "inputs": []
        }
    ],
    "bytecode": {
        "object": "0x60e06040525f600455348015610013575f5ffd5b5060405161423b38038061423b83398181016040528101906100359190610468565b8333805f5f73ffffffffffffffffffffffffffffffffffffffff168273ffffffffffffffffffffffffffffffffffffffff16036100a7576040517f08c379a000000000000000000000000000000000000000000000000000000000815260040161009e90610539565b60405180910390fd5b815f5f6101000a81548173ffffffffffffffffffffffffffffffffffffffff021916908373ffffffffffffffffffffffffffffffffffffffff1602179055505f73ffffffffffffffffffffffffffffffffffffffff168173ffffffffffffffffffffffffffffffffffffffff1614610129576101288161024060201b60201c565b5b5050505f73ffffffffffffffffffffffffffffffffffffffff168173ffffffffffffffffffffffffffffffffffffffff1603610191576040517fd92e233d00000000000000000000000000000000000000000000000000000000815260040160405180910390fd5b8060025f6101000a81548173ffffffffffffffffffffffffffffffffffffffff021916908373ffffffffffffffffffffffffffffffffffffffff160217905550508460035f6101000a81548173ffffffffffffffffffffffffffffffffffffffff021916908373ffffffffffffffffffffffffffffffffffffffff1602179055508260a0818152505081608081815250508063ffffffff1660c08163ffffffff168152505050505050506105bf565b3373ffffffffffffffffffffffffffffffffffffffff168173ffffffffffffffffffffffffffffffffffffffff16036102ae576040517f08c379a00000000000000000000000000000000000000000000000000000000081526004016102a5906105a1565b60405180910390fd5b8060015f6101000a81548173ffffffffffffffffffffffffffffffffffffffff021916908373ffffffffffffffffffffffffffffffffffffffff1602179055508073ffffffffffffffffffffffffffffffffffffffff165f5f9054906101000a900473ffffffffffffffffffffffffffffffffffffffff1673ffffffffffffffffffffffffffffffffffffffff167fed8889f560326eb138920d842192f0eb3dd22b4f139c87a2c57538e05bae127860405160405180910390a350565b5f5ffd5b5f73ffffffffffffffffffffffffffffffffffffffff82169050919050565b5f6103988261036f565b9050919050565b6103a88161038e565b81146103b2575f5ffd5b50565b5f815190506103c38161039f565b92915050565b5f819050919050565b6103db816103c9565b81146103e5575f5ffd5b50565b5f815190506103f6816103d2565b92915050565b5f819050919050565b61040e816103fc565b8114610418575f5ffd5b50565b5f8151905061042981610405565b92915050565b5f63ffffffff82169050919050565b6104478161042f565b8114610451575f5ffd5b50565b5f815190506104628161043e565b92915050565b5f5f5f5f5f60a086880312156104815761048061036b565b5b5f61048e888289016103b5565b955050602061049f888289016103b5565b94505060406104b0888289016103e8565b93505060606104c18882890161041b565b92505060806104d288828901610454565b9150509295509295909350565b5f82825260208201905092915050565b7f43616e6e6f7420736574206f776e657220746f207a65726f00000000000000005f82015250565b5f6105236018836104df565b915061052e826104ef565b602082019050919050565b5f6020820190508181035f83015261055081610517565b9050919050565b7f43616e6e6f74207472616e7366657220746f2073656c660000000000000000005f82015250565b5f61058b6017836104df565b915061059682610557565b602082019050919050565b5f6020820190508181035f8301526105b88161057f565b9050919050565b60805160a05160c051613c526105e95f395f610d6101525f610d0a01525f610d300152613c525ff3fe6080604052600436106100f2575f3560e01c80638ea9811711610089578063a3db6cef11610058578063a3db6cef1461032e578063bd30b6b61461036a578063f007a7ba14610392578063f2fde38b146103ae576100f2565b80638ea9811714610278578063921562cc146102a05780639dc23315146102c85780639eccacf614610304576100f2565b80633625a884116100c55780633625a884146101be57806379ba5097146101fa57806381d12c58146102105780638da5cb5b1461024e576100f2565b806318673a23146100f65780631fe543e31461011e5780632b2badb3146101465780632f4d158314610182575b5f5ffd5b348015610101575f5ffd5b5061011c600480360381019061011791906127c5565b6103d6565b005b348015610129575f5ffd5b50610144600480360381019061013f9190612897565b61054f565b005b348015610151575f5ffd5b5061016c6004803603810190610167919061294e565b610613565b6040516101799190612a94565b60405180910390f35b34801561018d575f5ffd5b506101a860048036038101906101a391906127c5565b61077c565b6040516101b59190612b5c565b60405180910390f35b3480156101c9575f5ffd5b506101e460048036038101906101df91906127c5565b61083c565b6040516101f19190612b8b565b60405180910390f35b348015610205575f5ffd5b5061020e61087a565b005b34801561021b575f5ffd5b5061023660048036038101906102319190612ba4565b610a09565b60405161024593929190612bed565b60405180910390f35b348015610259575f5ffd5b50610262610a42565b60405161026f9190612c31565b60405180910390f35b348015610283575f5ffd5b5061029e6004803603810190610299919061294e565b610a69565b005b3480156102ab575f5ffd5b506102c660048036038101906102c19190612c4a565b610c46565b005b3480156102d3575f5ffd5b506102ee60048036038101906102e991906127c5565b610e91565b6040516102fb9190612d82565b60405180910390f35b34801561030f575f5ffd5b50610318610f9a565b6040516103259190612dfd565b60405180910390f35b348015610339575f5ffd5b50610354600480360381019061034f91906127c5565b610fbf565b6040516103619190612e25565b60405180910390f35b348015610375575f5ffd5b50610390600480360381019061038b9190612e68565b610fe9565b005b6103ac60048036038101906103a79190612fe0565b611499565b005b3480156103b9575f5ffd5b506103d460048036038101906103cf919061294e565b61177f565b005b5f600b5f8481526020019081526020015f205f8367ffffffffffffffff1667ffffffffffffffff1681526020019081526020015f205490505f81148061041c5750804211155b156104605782826040517ffc25792f000000000000000000000000000000000000000000000000000000008152600401610457929190613027565b60405180910390fd5b600c5f8481526020019081526020015f205f8367ffffffffffffffff1667ffffffffffffffff1681526020019081526020015f205f9054906101000a900460ff16156104e55782826040517f112d2b2b0000000000000000000000000000000000000000000000000000000081526004016104dc929190613027565b60405180910390fd5b5f60085f8581526020019081526020015f205f8467ffffffffffffffff1667ffffffffffffffff1681526020019081526020015f2090505f5f828054905003610530575f905061053d565b61053a8585611793565b90505b6105488585836118db565b5050505050565b60025f9054906101000a900473ffffffffffffffffffffffffffffffffffffffff1673ffffffffffffffffffffffffffffffffffffffff163373ffffffffffffffffffffffffffffffffffffffff1614610603573360025f9054906101000a900473ffffffffffffffffffffffffffffffffffffffff166040517f1cf993f40000000000000000000000000000000000000000000000000000000081526004016105fa92919061304e565b60405180910390fd5b61060e838383611aef565b505050565b61061b612701565b60055f8373ffffffffffffffffffffffffffffffffffffffff1673ffffffffffffffffffffffffffffffffffffffff1681526020019081526020015f206040518060a00160405290815f82015f9054906101000a900460ff161515151581526020015f820160019054906101000a900473ffffffffffffffffffffffffffffffffffffffff1673ffffffffffffffffffffffffffffffffffffffff1673ffffffffffffffffffffffffffffffffffffffff16815260200160018201548152602001600282015481526020016003820180546106f5906130a2565b80601f0160208091040260200160405190810160405280929190818152602001828054610721906130a2565b801561076c5780601f106107435761010080835404028352916020019161076c565b820191905f5260205f20905b81548152906001019060200180831161074f57829003601f168201915b5050505050815250509050919050565b6060600a5f8481526020019081526020015f205f8367ffffffffffffffff1667ffffffffffffffff1681526020019081526020015f2080548060200260200160405190810160405280929190818152602001828054801561082f57602002820191905f5260205f20905b815f9054906101000a900473ffffffffffffffffffffffffffffffffffffffff1673ffffffffffffffffffffffffffffffffffffffff16815260200190600101908083116107e6575b5050505050905092915050565b5f600b5f8481526020019081526020015f205f8367ffffffffffffffff1667ffffffffffffffff1681526020019081526020015f2054905092915050565b60015f9054906101000a900473ffffffffffffffffffffffffffffffffffffffff1673ffffffffffffffffffffffffffffffffffffffff163373ffffffffffffffffffffffffffffffffffffffff1614610909576040517f08c379a00000000000000000000000000000000000000000000000000000000081526004016109009061312c565b60405180910390fd5b5f5f5f9054906101000a900473ffffffffffffffffffffffffffffffffffffffff169050335f5f6101000a81548173ffffffffffffffffffffffffffffffffffffffff021916908373ffffffffffffffffffffffffffffffffffffffff1602179055505f60015f6101000a81548173ffffffffffffffffffffffffffffffffffffffff021916908373ffffffffffffffffffffffffffffffffffffffff1602179055503373ffffffffffffffffffffffffffffffffffffffff168173ffffffffffffffffffffffffffffffffffffffff167f8be0079c531659141344cd1fd0a4f28419497f9722a3daafe3b4186f6b6457e060405160405180910390a350565b600d602052805f5260405f205f91509050805f015490806001015f9054906101000a900467ffffffffffffffff16908060020154905083565b5f5f5f9054906101000a900473ffffffffffffffffffffffffffffffffffffffff16905090565b610a71610a42565b73ffffffffffffffffffffffffffffffffffffffff163373ffffffffffffffffffffffffffffffffffffffff1614158015610af9575060025f9054906101000a900473ffffffffffffffffffffffffffffffffffffffff1673ffffffffffffffffffffffffffffffffffffffff163373ffffffffffffffffffffffffffffffffffffffff1614155b15610b675733610b07610a42565b60025f9054906101000a900473ffffffffffffffffffffffffffffffffffffffff166040517f061db9c1000000000000000000000000000000000000000000000000000000008152600401610b5e9392919061314a565b60405180910390fd5b5f73ffffffffffffffffffffffffffffffffffffffff168173ffffffffffffffffffffffffffffffffffffffff1603610bcc576040517fd92e233d00000000000000000000000000000000000000000000000000000000815260040160405180910390fd5b8060025f6101000a81548173ffffffffffffffffffffffffffffffffffffffff021916908373ffffffffffffffffffffffffffffffffffffffff1602179055507fd1a6a14209a385a964d036e404cb5cfb71f4000cdb03c9366292430787261be681604051610c3b9190612c31565b60405180910390a150565b428111610c7f576040517fc11dfc9700000000000000000000000000000000000000000000000000000000815260040160405180910390fd5b60056007805490501015610cbf576040517ffade90a700000000000000000000000000000000000000000000000000000000815260040160405180910390fd5b5f60025f9054906101000a900473ffffffffffffffffffffffffffffffffffffffff1673ffffffffffffffffffffffffffffffffffffffff16639b1c385e6040518060c001604052807f000000000000000000000000000000000000000000000000000000000000000081526020017f00000000000000000000000000000000000000000000000000000000000000008152602001600361ffff1681526020017f000000000000000000000000000000000000000000000000000000000000000063ffffffff168152602001600263ffffffff168152602001610db160405180602001604052805f1515815250611fd0565b8152506040518263ffffffff1660e01b8152600401610dd091906132a0565b6020604051808303815f875af1158015610dec573d5f5f3e3d5ffd5b505050506040513d601f19601f82011682018060405250810190610e1091906132d4565b905060405180606001604052808581526020018467ffffffffffffffff16815260200183815250600d5f8381526020019081526020015f205f820151815f01556020820151816001015f6101000a81548167ffffffffffffffff021916908367ffffffffffffffff1602179055506040820151816002015590505050505050565b606060085f8481526020019081526020015f205f8367ffffffffffffffff1667ffffffffffffffff1681526020019081526020015f20805480602002602001604051908101604052809291908181526020015f905b82821015610f8e578382905f5260205f2090600202016040518060600160405290815f82015f9054906101000a900460ff161515151581526020015f820160019054906101000a900473ffffffffffffffffffffffffffffffffffffffff1673ffffffffffffffffffffffffffffffffffffffff1673ffffffffffffffffffffffffffffffffffffffff16815260200160018201548152505081526020019060010190610ee6565b50505050905092915050565b60025f9054906101000a900473ffffffffffffffffffffffffffffffffffffffff1681565b600c602052815f5260405f20602052805f5260405f205f915091509054906101000a900460ff1681565b60055f3373ffffffffffffffffffffffffffffffffffffffff1673ffffffffffffffffffffffffffffffffffffffff1681526020019081526020015f205f015f9054906101000a900460ff1661107657336040517f677cd8f600000000000000000000000000000000000000000000000000000000815260040161106d9190612c31565b60405180910390fd5b60095f8481526020019081526020015f205f8367ffffffffffffffff1667ffffffffffffffff1681526020019081526020015f205f3373ffffffffffffffffffffffffffffffffffffffff1673ffffffffffffffffffffffffffffffffffffffff1681526020019081526020015f205f9054906101000a900460ff1661113357336040517f2105738100000000000000000000000000000000000000000000000000000000815260040161112a9190612c31565b60405180910390fd5b600c5f8481526020019081526020015f205f8367ffffffffffffffff1667ffffffffffffffff1681526020019081526020015f205f9054906101000a900460ff16156111b85782826040517f112d2b2b0000000000000000000000000000000000000000000000000000000081526004016111af929190613027565b60405180910390fd5b5f600b5f8581526020019081526020015f205f8467ffffffffffffffff1667ffffffffffffffff1681526020019081526020015f205490505f811180156111fe57508042115b156112425783836040517fac0fa2df000000000000000000000000000000000000000000000000000000008152600401611239929190613027565b60405180910390fd5b5f60085f8681526020019081526020015f205f8567ffffffffffffffff1667ffffffffffffffff1681526020019081526020015f2090505f5f90505b8180549050811015611348573373ffffffffffffffffffffffffffffffffffffffff168282815481106112b4576112b36132ff565b5b905f5260205f2090600202015f0160019054906101000a900473ffffffffffffffffffffffffffffffffffffffff1673ffffffffffffffffffffffffffffffffffffffff160361133b57336040517fcaef215c0000000000000000000000000000000000000000000000000000000081526004016113329190612c31565b60405180910390fd5b808060010191505061127e565b81604051806060016040528086151581526020013373ffffffffffffffffffffffffffffffffffffffff16815260200142815250908060018154018082558091505060019003905f5260205f2090600202015f909190919091505f820151815f015f6101000a81548160ff0219169083151502179055506020820151815f0160016101000a81548173ffffffffffffffffffffffffffffffffffffffff021916908373ffffffffffffffffffffffffffffffffffffffff1602179055506040820151816001015550503373ffffffffffffffffffffffffffffffffffffffff168567ffffffffffffffff16877f1ae397264104e74add86ee8d3ed5beca41c96c8e07245ed08065bf8bfe695ac0876040516114639190612e25565b60405180910390a46005828054905010611491575f6114828787611793565b905061148f8787836118db565b505b505050505050565b670de0b6b3a76400006114d660035f9054906101000a900473ffffffffffffffffffffffffffffffffffffffff163461206890919063ffffffff16565b101561151957336040517f988f87330000000000000000000000000000000000000000000000000000000081526004016115109190612c31565b60405180910390fd5b60055f3373ffffffffffffffffffffffffffffffffffffffff1673ffffffffffffffffffffffffffffffffffffffff1681526020019081526020015f205f015f9054906101000a900460ff16156115a757336040517fd9d9a4cf00000000000000000000000000000000000000000000000000000000815260040161159e9190612c31565b60405180910390fd5b6040518060a001604052806001151581526020013373ffffffffffffffffffffffffffffffffffffffff168152602001603281526020013481526020018281525060055f3373ffffffffffffffffffffffffffffffffffffffff1673ffffffffffffffffffffffffffffffffffffffff1681526020019081526020015f205f820151815f015f6101000a81548160ff0219169083151502179055506020820151815f0160016101000a81548173ffffffffffffffffffffffffffffffffffffffff021916908373ffffffffffffffffffffffffffffffffffffffff160217905550604082015181600101556060820151816002015560808201518160030190816116b191906134c3565b50905050600733908060018154018082558091505060019003905f5260205f20015f9091909190916101000a81548173ffffffffffffffffffffffffffffffffffffffff021916908373ffffffffffffffffffffffffffffffffffffffff16021790555060045f815480929190611727906135bf565b91905055503373ffffffffffffffffffffffffffffffffffffffff167fef970b0448282e353d4bd67cc3e899254edfdee2c814e7bcc99ed32fd29c744c823460405161177492919061363e565b60405180910390a250565b61178761212c565b611790816121bc565b50565b5f5f5f90505f5f90505f60085f8781526020019081526020015f205f8667ffffffffffffffff1667ffffffffffffffff1681526020019081526020015f2090505f5f90505b81805490508110156118cc575f60055f8484815481106117fb576117fa6132ff565b5b905f5260205f2090600202015f0160019054906101000a900473ffffffffffffffffffffffffffffffffffffffff1673ffffffffffffffffffffffffffffffffffffffff1673ffffffffffffffffffffffffffffffffffffffff1681526020019081526020015f2060010154905082828154811061187c5761187b6132ff565b5b905f5260205f2090600202015f015f9054906101000a900460ff16156118af5780856118a8919061366c565b94506118be565b80846118bb919061366c565b93505b5080806001019150506117d8565b82841194505050505092915050565b6001600c5f8581526020019081526020015f205f8467ffffffffffffffff1667ffffffffffffffff1681526020019081526020015f205f6101000a81548160ff0219169083151502179055505f60085f8581526020019081526020015f205f8467ffffffffffffffff1667ffffffffffffffff1681526020019081526020015f2090505f5f90505b8180549050811015611aa557821515828281548110611985576119846132ff565b5b905f5260205f2090600202015f015f9054906101000a900460ff16151503611a4457600260055f8484815481106119bf576119be6132ff565b5b905f5260205f2090600202015f0160019054906101000a900473ffffffffffffffffffffffffffffffffffffffff1673ffffffffffffffffffffffffffffffffffffffff1673ffffffffffffffffffffffffffffffffffffffff1681526020019081526020015f206001015f828254611a38919061366c565b92505081905550611a98565b611a97828281548110611a5a57611a596132ff565b5b905f5260205f2090600202015f0160019054906101000a900473ffffffffffffffffffffffffffffffffffffffff1667016345785d8a00006122e7565b5b8080600101915050611963565b8367ffffffffffffffff16857fc039b81b2fc3b6c7f043d5afc41becae4ecd56e8a60f619a22eb26285be30d1a85604051611ae09190612e25565b60405180910390a35050505050565b5f600d5f8581526020019081526020015f206040518060600160405290815f8201548152602001600182015f9054906101000a900467ffffffffffffffff1667ffffffffffffffff1667ffffffffffffffff16815260200160028201548152505090505f83835f818110611b6657611b656132ff565b5b9050602002013590505f6007805480602002602001604051908101604052809291908181526020018280548015611bef57602002820191905f5260205f20905b815f9054906101000a900473ffffffffffffffffffffffffffffffffffffffff1673ffffffffffffffffffffffffffffffffffffffff1681526020019060010190808311611ba6575b505050505090508260400151600b5f855f015181526020019081526020015f205f856020015167ffffffffffffffff1667ffffffffffffffff1681526020019081526020015f20819055505f5f90505f60078054905090505b6005821015611d7a575f8282611c5e919061369f565b8584604051602001611c719291906136d2565b604051602081830303815290604052805190602001205f1c611c939190613726565b83611c9e919061366c565b9050838181518110611cb357611cb26132ff565b5b6020026020010151848481518110611cce57611ccd6132ff565b5b6020026020010151858581518110611ce957611ce86132ff565b5b60200260200101868481518110611d0357611d026132ff565b5b602002602001018273ffffffffffffffffffffffffffffffffffffffff1673ffffffffffffffffffffffffffffffffffffffff168152508273ffffffffffffffffffffffffffffffffffffffff1673ffffffffffffffffffffffffffffffffffffffff168152505050508180600101925050611c48565b5f600567ffffffffffffffff811115611d9657611d95612ebc565b5b604051908082528060200260200182016040528015611dc45781602001602082028036833780820191505090505b5090505f92505b6005831015611f75575f848481518110611de857611de76132ff565b5b6020026020010151905080828581518110611e0657611e056132ff565b5b602002602001019073ffffffffffffffffffffffffffffffffffffffff16908173ffffffffffffffffffffffffffffffffffffffff1681525050600160095f895f015181526020019081526020015f205f896020015167ffffffffffffffff1667ffffffffffffffff1681526020019081526020015f205f8373ffffffffffffffffffffffffffffffffffffffff1673ffffffffffffffffffffffffffffffffffffffff1681526020019081526020015f205f6101000a81548160ff021916908315150217905550600a5f885f015181526020019081526020015f205f886020015167ffffffffffffffff1667ffffffffffffffff1681526020019081526020015f2081908060018154018082558091505060019003905f5260205f20015f9091909190916101000a81548173ffffffffffffffffffffffffffffffffffffffff021916908373ffffffffffffffffffffffffffffffffffffffff160217905550508280600101935050611dcb565b856020015167ffffffffffffffff16865f01517f84530db64e0f5cebacdda0f200d2abb351275571d5b6a1fa0f5eb9fdc5615255838960400151604051611fbd929190613756565b60405180910390a3505050505050505050565b60607f92fd13387c7fe7befbc38d303d6468778fb9731bc4583f17d92989c6fcfdeaaa82604051602401612004919061379e565b604051602081830303815290604052907bffffffffffffffffffffffffffffffffffffffffffffffffffffffff19166020820180517bffffffffffffffffffffffffffffffffffffffffffffffffffffffff83818316178352505050509050919050565b5f5f8273ffffffffffffffffffffffffffffffffffffffff1663313ce5676040518163ffffffff1660e01b8152600401602060405180830381865afa1580156120b3573d5f5f3e3d5ffd5b505050506040513d601f19601f820116820180604052508101906120d791906137ed565b9050670de0b6b3a7640000848260126120f09190613818565b600a6120fc919061397b565b612105866124c8565b61210f91906139c5565b61211991906139c5565b6121239190613a06565b91505092915050565b5f5f9054906101000a900473ffffffffffffffffffffffffffffffffffffffff1673ffffffffffffffffffffffffffffffffffffffff163373ffffffffffffffffffffffffffffffffffffffff16146121ba576040517f08c379a00000000000000000000000000000000000000000000000000000000081526004016121b190613a80565b60405180910390fd5b565b3373ffffffffffffffffffffffffffffffffffffffff168173ffffffffffffffffffffffffffffffffffffffff160361222a576040517f08c379a000000000000000000000000000000000000000000000000000000000815260040161222190613ae8565b60405180910390fd5b8060015f6101000a81548173ffffffffffffffffffffffffffffffffffffffff021916908373ffffffffffffffffffffffffffffffffffffffff1602179055508073ffffffffffffffffffffffffffffffffffffffff165f5f9054906101000a900473ffffffffffffffffffffffffffffffffffffffff1673ffffffffffffffffffffffffffffffffffffffff167fed8889f560326eb138920d842192f0eb3dd22b4f139c87a2c57538e05bae127860405160405180910390a350565b8060055f8473ffffffffffffffffffffffffffffffffffffffff1673ffffffffffffffffffffffffffffffffffffffff1681526020019081526020015f206002015f828254612336919061369f565b925050819055506005805f8473ffffffffffffffffffffffffffffffffffffffff1673ffffffffffffffffffffffffffffffffffffffff1681526020019081526020015f206001015f82825461238c919061369f565b92505081905550670de0b6b3a764000061241060035f9054906101000a900473ffffffffffffffffffffffffffffffffffffffff1660055f8673ffffffffffffffffffffffffffffffffffffffff1673ffffffffffffffffffffffffffffffffffffffff1681526020019081526020015f206002015461206890919063ffffffff16565b1015612476575f60055f8473ffffffffffffffffffffffffffffffffffffffff1673ffffffffffffffffffffffffffffffffffffffff1681526020019081526020015f205f015f6101000a81548160ff02191690831515021790555061247582612546565b5b8173ffffffffffffffffffffffffffffffffffffffff167fe5cecdfbb3735553bd0fada85bc2e788b9c3a5e5c3be17a563b34776261353ce826040516124bc9190612b8b565b60405180910390a25050565b5f5f8273ffffffffffffffffffffffffffffffffffffffff1663feaf968c6040518163ffffffff1660e01b815260040160a060405180830381865afa158015612513573d5f5f3e3d5ffd5b505050506040513d601f19601f820116820180604052508101906125379190613b78565b50505091505080915050919050565b5f60065f8373ffffffffffffffffffffffffffffffffffffffff1673ffffffffffffffffffffffffffffffffffffffff1681526020019081526020015f205490505f600160078054905061259a919061369f565b90505f600782815481106125b1576125b06132ff565b5b905f5260205f20015f9054906101000a900473ffffffffffffffffffffffffffffffffffffffff16905080600784815481106125f0576125ef6132ff565b5b905f5260205f20015f6101000a81548173ffffffffffffffffffffffffffffffffffffffff021916908373ffffffffffffffffffffffffffffffffffffffff1602179055508260065f8373ffffffffffffffffffffffffffffffffffffffff1673ffffffffffffffffffffffffffffffffffffffff1681526020019081526020015f2081905550600780548061268957612688613bef565b5b600190038181905f5260205f20015f6101000a81549073ffffffffffffffffffffffffffffffffffffffff0219169055905560065f8573ffffffffffffffffffffffffffffffffffffffff1673ffffffffffffffffffffffffffffffffffffffff1681526020019081526020015f205f905550505050565b6040518060a001604052805f151581526020015f73ffffffffffffffffffffffffffffffffffffffff1681526020015f81526020015f8152602001606081525090565b5f604051905090565b5f5ffd5b5f5ffd5b5f819050919050565b61276781612755565b8114612771575f5ffd5b50565b5f813590506127828161275e565b92915050565b5f67ffffffffffffffff82169050919050565b6127a481612788565b81146127ae575f5ffd5b50565b5f813590506127bf8161279b565b92915050565b5f5f604083850312156127db576127da61274d565b5b5f6127e885828601612774565b92505060206127f9858286016127b1565b9150509250929050565b5f819050919050565b61281581612803565b811461281f575f5ffd5b50565b5f813590506128308161280c565b92915050565b5f5ffd5b5f5ffd5b5f5ffd5b5f5f83601f84011261285757612856612836565b5b8235905067ffffffffffffffff8111156128745761287361283a565b5b6020830191508360208202830111156128905761288f61283e565b5b9250929050565b5f5f5f604084860312156128ae576128ad61274d565b5b5f6128bb86828701612822565b935050602084013567ffffffffffffffff8111156128dc576128db612751565b5b6128e886828701612842565b92509250509250925092565b5f73ffffffffffffffffffffffffffffffffffffffff82169050919050565b5f61291d826128f4565b9050919050565b61292d81612913565b8114612937575f5ffd5b50565b5f8135905061294881612924565b92915050565b5f602082840312156129635761296261274d565b5b5f6129708482850161293a565b91505092915050565b5f8115159050919050565b61298d81612979565b82525050565b61299c81612913565b82525050565b6129ab81612803565b82525050565b5f81519050919050565b5f82825260208201905092915050565b8281835e5f83830152505050565b5f601f19601f8301169050919050565b5f6129f3826129b1565b6129fd81856129bb565b9350612a0d8185602086016129cb565b612a16816129d9565b840191505092915050565b5f60a083015f830151612a365f860182612984565b506020830151612a496020860182612993565b506040830151612a5c60408601826129a2565b506060830151612a6f60608601826129a2565b5060808301518482036080860152612a8782826129e9565b9150508091505092915050565b5f6020820190508181035f830152612aac8184612a21565b905092915050565b5f81519050919050565b5f82825260208201905092915050565b5f819050602082019050919050565b5f612ae88383612993565b60208301905092915050565b5f602082019050919050565b5f612b0a82612ab4565b612b148185612abe565b9350612b1f83612ace565b805f5b83811015612b4f578151612b368882612add565b9750612b4183612af4565b925050600181019050612b22565b5085935050505092915050565b5f6020820190508181035f830152612b748184612b00565b905092915050565b612b8581612803565b82525050565b5f602082019050612b9e5f830184612b7c565b92915050565b5f60208284031215612bb957612bb861274d565b5b5f612bc684828501612822565b91505092915050565b612bd881612755565b82525050565b612be781612788565b82525050565b5f606082019050612c005f830186612bcf565b612c0d6020830185612bde565b612c1a6040830184612b7c565b949350505050565b612c2b81612913565b82525050565b5f602082019050612c445f830184612c22565b92915050565b5f5f5f60608486031215612c6157612c6061274d565b5b5f612c6e86828701612774565b9350506020612c7f868287016127b1565b9250506040612c9086828701612822565b9150509250925092565b5f81519050919050565b5f82825260208201905092915050565b5f819050602082019050919050565b606082015f820151612cd75f850182612984565b506020820151612cea6020850182612993565b506040820151612cfd60408501826129a2565b50505050565b5f612d0e8383612cc3565b60608301905092915050565b5f602082019050919050565b5f612d3082612c9a565b612d3a8185612ca4565b9350612d4583612cb4565b805f5b83811015612d75578151612d5c8882612d03565b9750612d6783612d1a565b925050600181019050612d48565b5085935050505092915050565b5f6020820190508181035f830152612d9a8184612d26565b905092915050565b5f819050919050565b5f612dc5612dc0612dbb846128f4565b612da2565b6128f4565b9050919050565b5f612dd682612dab565b9050919050565b5f612de782612dcc565b9050919050565b612df781612ddd565b82525050565b5f602082019050612e105f830184612dee565b92915050565b612e1f81612979565b82525050565b5f602082019050612e385f830184612e16565b92915050565b612e4781612979565b8114612e51575f5ffd5b50565b5f81359050612e6281612e3e565b92915050565b5f5f5f60608486031215612e7f57612e7e61274d565b5b5f612e8c86828701612774565b9350506020612e9d868287016127b1565b9250506040612eae86828701612e54565b9150509250925092565b5f5ffd5b7f4e487b71000000000000000000000000000000000000000000000000000000005f52604160045260245ffd5b612ef2826129d9565b810181811067ffffffffffffffff82111715612f1157612f10612ebc565b5b80604052505050565b5f612f23612744565b9050612f2f8282612ee9565b919050565b5f67ffffffffffffffff821115612f4e57612f4d612ebc565b5b612f57826129d9565b9050602081019050919050565b828183375f83830152505050565b5f612f84612f7f84612f34565b612f1a565b905082815260208101848484011115612fa057612f9f612eb8565b5b612fab848285612f64565b509392505050565b5f82601f830112612fc757612fc6612836565b5b8135612fd7848260208601612f72565b91505092915050565b5f60208284031215612ff557612ff461274d565b5b5f82013567ffffffffffffffff81111561301257613011612751565b5b61301e84828501612fb3565b91505092915050565b5f60408201905061303a5f830185612bcf565b6130476020830184612bde565b9392505050565b5f6040820190506130615f830185612c22565b61306e6020830184612c22565b9392505050565b7f4e487b71000000000000000000000000000000000000000000000000000000005f52602260045260245ffd5b5f60028204905060018216806130b957607f821691505b6020821081036130cc576130cb613075565b5b50919050565b5f82825260208201905092915050565b7f4d7573742062652070726f706f736564206f776e6572000000000000000000005f82015250565b5f6131166016836130d2565b9150613121826130e2565b602082019050919050565b5f6020820190508181035f8301526131438161310a565b9050919050565b5f60608201905061315d5f830186612c22565b61316a6020830185612c22565b6131776040830184612c22565b949350505050565b61318881612755565b82525050565b5f61ffff82169050919050565b6131a48161318e565b82525050565b5f63ffffffff82169050919050565b6131c2816131aa565b82525050565b5f81519050919050565b5f82825260208201905092915050565b5f6131ec826131c8565b6131f681856131d2565b93506132068185602086016129cb565b61320f816129d9565b840191505092915050565b5f60c083015f83015161322f5f86018261317f565b50602083015161324260208601826129a2565b506040830151613255604086018261319b565b50606083015161326860608601826131b9565b50608083015161327b60808601826131b9565b5060a083015184820360a086015261329382826131e2565b9150508091505092915050565b5f6020820190508181035f8301526132b8818461321a565b905092915050565b5f815190506132ce8161280c565b92915050565b5f602082840312156132e9576132e861274d565b5b5f6132f6848285016132c0565b91505092915050565b7f4e487b71000000000000000000000000000000000000000000000000000000005f52603260045260245ffd5b5f819050815f5260205f209050919050565b5f6020601f8301049050919050565b5f82821b905092915050565b5f600883026133887fffffffffffffffffffffffffffffffffffffffffffffffffffffffffffffffff8261334d565b613392868361334d565b95508019841693508086168417925050509392505050565b5f6133c46133bf6133ba84612803565b612da2565b612803565b9050919050565b5f819050919050565b6133dd836133aa565b6133f16133e9826133cb565b848454613359565b825550505050565b5f5f905090565b6134086133f9565b6134138184846133d4565b505050565b5b818110156134365761342b5f82613400565b600181019050613419565b5050565b601f82111561347b5761344c8161332c565b6134558461333e565b81016020851015613464578190505b6134786134708561333e565b830182613418565b50505b505050565b5f82821c905092915050565b5f61349b5f1984600802613480565b1980831691505092915050565b5f6134b3838361348c565b9150826002028217905092915050565b6134cc826129b1565b67ffffffffffffffff8111156134e5576134e4612ebc565b5b6134ef82546130a2565b6134fa82828561343a565b5f60209050601f83116001811461352b575f8415613519578287015190505b61352385826134a8565b86555061358a565b601f1984166135398661332c565b5f5b828110156135605784890151825560018201915060208501945060208101905061353b565b8683101561357d5784890151613579601f89168261348c565b8355505b6001600288020188555050505b505050505050565b7f4e487b71000000000000000000000000000000000000000000000000000000005f52601160045260245ffd5b5f6135c982612803565b91507fffffffffffffffffffffffffffffffffffffffffffffffffffffffffffffffff82036135fb576135fa613592565b5b600182019050919050565b5f613610826129b1565b61361a81856130d2565b935061362a8185602086016129cb565b613633816129d9565b840191505092915050565b5f6040820190508181035f8301526136568185613606565b90506136656020830184612b7c565b9392505050565b5f61367682612803565b915061368183612803565b925082820190508082111561369957613698613592565b5b92915050565b5f6136a982612803565b91506136b483612803565b92508282039050818111156136cc576136cb613592565b5b92915050565b5f6040820190506136e55f830185612b7c565b6136f26020830184612b7c565b9392505050565b7f4e487b71000000000000000000000000000000000000000000000000000000005f52601260045260245ffd5b5f61373082612803565b915061373b83612803565b92508261374b5761374a6136f9565b5b828206905092915050565b5f6040820190508181035f83015261376e8185612b00565b905061377d6020830184612b7c565b9392505050565b602082015f8201516137985f850182612984565b50505050565b5f6020820190506137b15f830184613784565b92915050565b5f60ff82169050919050565b6137cc816137b7565b81146137d6575f5ffd5b50565b5f815190506137e7816137c3565b92915050565b5f602082840312156138025761380161274d565b5b5f61380f848285016137d9565b91505092915050565b5f613822826137b7565b915061382d836137b7565b9250828203905060ff81111561384657613845613592565b5b92915050565b5f8160011c9050919050565b5f5f8291508390505b60018511156138a15780860481111561387d5761387c613592565b5b600185161561388c5780820291505b808102905061389a8561384c565b9450613861565b94509492505050565b5f826138b95760019050613974565b816138c6575f9050613974565b81600181146138dc57600281146138e657613915565b6001915050613974565b60ff8411156138f8576138f7613592565b5b8360020a91508482111561390f5761390e613592565b5b50613974565b5060208310610133831016604e8410600b841016171561394a5782820a90508381111561394557613944613592565b5b613974565b6139578484846001613858565b9250905081840481111561396e5761396d613592565b5b81810290505b9392505050565b5f61398582612803565b9150613990836137b7565b92506139bd7fffffffffffffffffffffffffffffffffffffffffffffffffffffffffffffffff84846138aa565b905092915050565b5f6139cf82612803565b91506139da83612803565b92508282026139e881612803565b915082820484148315176139ff576139fe613592565b5b5092915050565b5f613a1082612803565b9150613a1b83612803565b925082613a2b57613a2a6136f9565b5b828204905092915050565b7f4f6e6c792063616c6c61626c65206279206f776e6572000000000000000000005f82015250565b5f613a6a6016836130d2565b9150613a7582613a36565b602082019050919050565b5f6020820190508181035f830152613a9781613a5e565b9050919050565b7f43616e6e6f74207472616e7366657220746f2073656c660000000000000000005f82015250565b5f613ad26017836130d2565b9150613add82613a9e565b602082019050919050565b5f6020820190508181035f830152613aff81613ac6565b9050919050565b5f69ffffffffffffffffffff82169050919050565b613b2481613b06565b8114613b2e575f5ffd5b50565b5f81519050613b3f81613b1b565b92915050565b5f819050919050565b613b5781613b45565b8114613b61575f5ffd5b50565b5f81519050613b7281613b4e565b92915050565b5f5f5f5f5f60a08688031215613b9157613b9061274d565b5b5f613b9e88828901613b31565b9550506020613baf88828901613b64565b9450506040613bc0888289016132c0565b9350506060613bd1888289016132c0565b9250506080613be288828901613b31565b9150509295509295909350565b7f4e487b71000000000000000000000000000000000000000000000000000000005f52603160045260245ffdfea2646970667358221220fc068042d56d6b2be56658babc5e85b8881b9ea94ac28d4c194c0a24fcee099964736f6c634300081e0033",
        "linkReferences": {}
    },
    "methodIdentifiers": {
        "acceptOwnership()": "79ba5097",
        "finalizeExpired(bytes32,uint64)": "18673a23",
        "finalized(bytes32,uint64)": "a3db6cef",
        "getAuditor(address)": "2b2badb3",
        "getVerificationAssignments(bytes32,uint64)": "2f4d1583",
        "getVerificationDeadline(bytes32,uint64)": "3625a884",
        "getVerifications(bytes32,uint64)": "9dc23315",
        "owner()": "8da5cb5b",
        "rawFulfillRandomWords(uint256,uint256[])": "1fe543e3",
        "registerAuditor(string)": "f007a7ba",
        "requestVerification(bytes32,uint64,uint256)": "921562cc",
        "requests(uint256)": "81d12c58",
        "s_vrfCoordinator()": "9eccacf6",
        "setCoordinator(address)": "8ea98117",
        "transferOwnership(address)": "f2fde38b",
        "verify(bytes32,uint64,bool)": "bd30b6b6"
    },
    "id": 32
}