{
    "abi": [
        {
            "type": "constructor",
            "inputs": [
                {
                    "name": "_priceFeedAddress",
                    "type": "address",
                    "internalType": "address"
                },
                {
                    "name": "_vrfCoordinator",
                    "type": "address",
                    "internalType": "address"
                },
                {
                    "name": "_keyHash",
                    "type": "bytes32",
                    "internalType": "bytes32"
                },
                {
                    "name": "_subscriptionId",
                    "type": "uint256",
                    "internalType": "uint256"
                },
                {
                    "name": "_callbackGasLimit",
                    "type": "uint32",
                    "internalType": "uint32"
                }
            ],
            "stateMutability": "nonpayable"
        },
        {
            "type": "function",
            "name": "MIN_AUDITORS",
            "inputs": [],
            "outputs": [
                {
                    "name": "",
                    "type": "uint256",
                    "internalType": "uint256"
                }
            ],
            "stateMutability": "view"
        },
        {
            "type": "function",
            "name": "acceptOwnership",
            "inputs": [],
            "outputs": [],
            "stateMutability": "nonpayable"
        },
        {
            "type": "function",
            "name": "finalizeExpired",
            "inputs": [
                {
                    "name": "identifier",
                    "type": "bytes32",
                    "internalType": "bytes32"
                },
                {
                    "name": "id",
                    "type": "uint64",
                    "internalType": "uint64"
                }
            ],
            "outputs": [],
            "stateMutability": "nonpayable"
        },
        {
            "type": "function",
            "name": "finalized",
            "inputs": [
                {
                    "name": "",
                    "type": "bytes32",
                    "internalType": "bytes32"
                },
                {
                    "name": "",
                    "type": "uint64",
                    "internalType": "uint64"
                }
            ],
            "outputs": [
                {
                    "name": "",
                    "type": "bool",
                    "internalType": "bool"
                }
            ],
            "stateMutability": "view"
        },
        {
            "type": "function",
            "name": "getAuditor",
            "inputs": [
                {
                    "name": "auditor",
                    "type": "address",
                    "internalType": "address"
                }
            ],
            "outputs": [
                {
                    "name": "",
                    "type": "tuple",
                    "internalType": "struct AuditorRegistry.Auditor",
                    "components": [
                        {
                            "name": "isActive",
                            "type": "bool",
                            "internalType": "bool"
                        },
                        {
                            "name": "auditorAddress",
                            "type": "address",
                            "internalType": "address"
                        },
                        {
                            "name": "reputationScore",
                            "type": "uint256",
                            "internalType": "uint256"
                        },
                        {
                            "name": "stakedTokens",
                            "type": "uint256",
                            "internalType": "uint256"
                        },
                        {
                            "name": "name",
                            "type": "string",
                            "internalType": "string"
                        }
                    ]
                }
            ],
            "stateMutability": "view"
        },
        {
            "type": "function",
            "name": "getVerificationAssignments",
            "inputs": [
                {
                    "name": "identifier",
                    "type": "bytes32",
                    "internalType": "bytes32"
                },
                {
                    "name": "id",
                    "type": "uint64",
                    "internalType": "uint64"
                }
            ],
            "outputs": [
                {
                    "name": "",
                    "type": "address[]",
                    "internalType": "address[]"
                }
            ],
            "stateMutability": "view"
        },
        {
            "type": "function",
            "name": "getVerificationDeadline",
            "inputs": [
                {
                    "name": "identifier",
                    "type": "bytes32",
                    "internalType": "bytes32"
                },
                {
                    "name": "id",
                    "type": "uint64",
                    "internalType": "uint64"
                }
            ],
            "outputs": [
                {
                    "name": "",
                    "type": "uint256",
                    "internalType": "uint256"
                }
            ],
            "stateMutability": "view"
        },
        {
            "type": "function",
            "name": "getVerificationResult",
            "inputs": [
                {
                    "name": "identifier",
                    "type": "bytes32",
                    "internalType": "bytes32"
                },
                {
                    "name": "id",
                    "type": "uint64",
                    "internalType": "uint64"
                }
            ],
            "outputs": [
                {
                    "name": "",
                    "type": "bool",
                    "internalType": "bool"
                }
            ],
            "stateMutability": "view"
        },
        {
            "type": "function",
            "name": "getVerifications",
            "inputs": [
                {
                    "name": "identifier",
                    "type": "bytes32",
                    "internalType": "bytes32"
                },
                {
                    "name": "id",
                    "type": "uint64",
                    "internalType": "uint64"
                }
            ],
            "outputs": [
                {
                    "name": "",
                    "type": "tuple[]",
                    "internalType": "struct AuditorRegistry.Verification[]",
                    "components": [
                        {
                            "name": "isValid",
                            "type": "bool",
                            "internalType": "bool"
                        },
                        {
                            "name": "auditor",
                            "type": "address",
                            "internalType": "address"
                        },
                        {
                            "name": "timestamp",
                            "type": "uint256",
                            "internalType": "uint256"
                        }
                    ]
                }
            ],
            "stateMutability": "view"
        },
        {
            "type": "function",
            "name": "owner",
            "inputs": [],
            "outputs": [
                {
                    "name": "",
                    "type": "address",
                    "internalType": "address"
                }
            ],
            "stateMutability": "view"
        },
        {
            "type": "function",
            "name": "rawFulfillRandomWords",
            "inputs": [
                {
                    "name": "requestId",
                    "type": "uint256",
                    "internalType": "uint256"
                },
                {
                    "name": "randomWords",
                    "type": "uint256[]",
                    "internalType": "uint256[]"
                }
            ],
            "outputs": [],
            "stateMutability": "nonpayable"
        },
        {
            "type": "function",
            "name": "registerAuditor",
            "inputs": [
                {
                    "name": "name",
                    "type": "string",
                    "internalType": "string"
                }
            ],
            "outputs": [],
            "stateMutability": "payable"
        },
        {
            "type": "function",
            "name": "requestVerification",
            "inputs": [
                {
                    "name": "identifier",
                    "type": "bytes32",
                    "internalType": "bytes32"
                },
                {
                    "name": "id",
                    "type": "uint64",
                    "internalType": "uint64"
                },
                {
                    "name": "deadline",
                    "type": "uint256",
                    "internalType": "uint256"
                }
            ],
            "outputs": [],
            "stateMutability": "nonpayable"
        },
        {
            "type": "function",
            "name": "requests",
            "inputs": [
                {
                    "name": "",
                    "type": "uint256",
                    "internalType": "uint256"
                }
            ],
            "outputs": [
                {
                    "name": "identifier",
                    "type": "bytes32",
                    "internalType": "bytes32"
                },
                {
                    "name": "id",
                    "type": "uint64",
                    "internalType": "uint64"
                },
                {
                    "name": "deadline",
                    "type": "uint256",
                    "internalType": "uint256"
                }
            ],
            "stateMutability": "view"
        },
        {
            "type": "function",
            "name": "s_vrfCoordinator",
            "inputs": [],
            "outputs": [
                {
                    "name": "",
                    "type": "address",
                    "internalType": "contract IVRFCoordinatorV2Plus"
                }
            ],
            "stateMutability": "view"
        },
        {
            "type": "function",
            "name": "setCoordinator",
            "inputs": [
                {
                    "name": "_vrfCoordinator",
                    "type": "address",
                    "internalType": "address"
                }
            ],
            "outputs": [],
            "stateMutability": "nonpayable"
        },
        {
            "type": "function",
            "name": "transferOwnership",
            "inputs": [
                {
                    "name": "to",
                    "type": "address",
                    "internalType": "address"
                }
            ],
            "outputs": [],
            "stateMutability": "nonpayable"
        },
        {
            "type": "function",
            "name": "verificationResult",
            "inputs": [
                {
                    "name": "",
                    "type": "bytes32",
                    "internalType": "bytes32"
                },
                {
                    "name": "",
                    "type": "uint64",
                    "internalType": "uint64"
                }
            ],
            "outputs": [
                {
                    "name": "",
                    "type": "bool",
                    "internalType": "bool"
                }
            ],
            "stateMutability": "view"
        },
        {
            "type": "function",
            "name": "verify",
            "inputs": [
                {
                    "name": "identifier",
                    "type": "bytes32",
                    "internalType": "bytes32"
                },
                {
                    "name": "id",
                    "type": "uint64",
                    "internalType": "uint64"
                },
                {
                    "name": "isValid",
                    "type": "bool",
                    "internalType": "bool"
                }
            ],
            "outputs": [],
            "stateMutability": "nonpayable"
        },
        {
            "type": "event",
            "name": "AuditorRegistered",
            "inputs": [
                {
                    "name": "auditor",
                    "type": "address",
                    "indexed": true,
                    "internalType": "address"
                },
                {
                    "name": "name",
                    "type": "string",
                    "indexed": false,
                    "internalType": "string"
                },
                {
                    "name": "stakedTokens",
                    "type": "uint256",
                    "indexed": false,
                    "internalType": "uint256"
                }
            ],
            "anonymous": false
        },
        {
            "type": "event",
            "name": "AuditorSlashed",
            "inputs": [
                {
                    "name": "auditor",
                    "type": "address",
                    "indexed": true,
                    "internalType": "address"
                },
                {
                    "name": "amount",
                    "type": "uint256",
                    "indexed": false,
                    "internalType": "uint256"
                }
            ],
            "anonymous": false
        },
        {
            "type": "event",
            "name": "CoordinatorSet",
            "inputs": [
                {
                    "name": "vrfCoordinator",
                    "type": "address",
                    "indexed": false,
                    "internalType": "address"
                }
            ],
            "anonymous": false
        },
        {
            "type": "event",
            "name": "OwnershipTransferRequested",
            "inputs": [
                {
                    "name": "from",
                    "type": "address",
                    "indexed": true,
                    "internalType": "address"
                },
                {
                    "name": "to",
                    "type": "address",
                    "indexed": true,
                    "internalType": "address"
                }
            ],
            "anonymous": false
        },
        {
            "type": "event",
            "name": "OwnershipTransferred",
            "inputs": [
                {
                    "name": "from",
                    "type": "address",
                    "indexed": true,
                    "internalType": "address"
                },
                {
                    "name": "to",
                    "type": "address",
                    "indexed": true,
                    "internalType": "address"
                }
            ],
            "anonymous": false
        },
        {
            "type": "event",
            "name": "VerificationFinalized",
            "inputs": [
                {
                    "name": "identifier",
                    "type": "bytes32",
                    "indexed": true,
                    "internalType": "bytes32"
                },
                {
                    "name": "id",
                    "type": "uint64",
                    "indexed": true,
                    "internalType": "uint64"
                },
                {
                    "name": "consensus",
                    "type": "bool",
                    "indexed": false,
                    "internalType": "bool"
                },
                {
                    "name": "totalVote",
                    "type": "uint256",
                    "indexed": false,
                    "internalType": "uint256"
                }
            ],
            "anonymous": false
        },
        {
            "type": "event",
            "name": "VerificationRequested",
            "inputs": [
                {
                    "name": "identifier",
                    "type": "bytes32",
                    "indexed": true,
                    "internalType": "bytes32"
                },
                {
                    "name": "id",
                    "type": "uint64",
                    "indexed": true,
                    "internalType": "uint64"
                },
                {
                    "name": "assignedAuditors",
                    "type": "address[]",
                    "indexed": false,
                    "internalType": "address[]"
                },
                {
                    "name": "deadline",
                    "type": "uint256",
                    "indexed": false,
                    "internalType": "uint256"
                }
            ],
            "anonymous": false
        },
        {
            "type": "event",
            "name": "VerificationSubmitted",
            "inputs": [
                {
                    "name": "identifier",
                    "type": "bytes32",
                    "indexed": true,
                    "internalType": "bytes32"
                },
                {
                    "name": "id",
                    "type": "uint64",
                    "indexed": true,
                    "internalType": "uint64"
                },
                {
                    "name": "auditor",
                    "type": "address",
                    "indexed": true,
                    "internalType": "address"
                },
                {
                    "name": "isValid",
                    "type": "bool",
                    "indexed": false,
                    "internalType": "bool"
                }
            ],
            "anonymous": false
        },
        {
            "type": "error",
            "name": "AuditorRegistry__AlreadyFinalized",
            "inputs": [
                {
                    "name": "",
                    "type": "bytes32",
                    "internalType": "bytes32"
                },
                {
                    "name": "",
                    "type": "uint64",
                    "internalType": "uint64"
                }
            ]
        },
        {
            "type": "error",
            "name": "AuditorRegistry__AlreadyRegistered",
            "inputs": [
                {
                    "name": "",
                    "type": "address",
                    "internalType": "address"
                }
            ]
        },
        {
            "type": "error",
            "name": "AuditorRegistry__AlreadyVerified",
            "inputs": [
                {
                    "name": "",
                    "type": "address",
                    "internalType": "address"
                }
            ]
        },
        {
            "type": "error",
            "name": "AuditorRegistry__DeadlineExpired",
            "inputs": [
                {
                    "name": "",
                    "type": "bytes32",
                    "internalType": "bytes32"
                },
                {
                    "name": "",
                    "type": "uint64",
                    "internalType": "uint64"
                }
            ]
        },
        {
            "type": "error",
            "name": "AuditorRegistry__InvalidAmount",
            "inputs": [
                {
                    "name": "",
                    "type": "address",
                    "internalType": "address"
                }
            ]
        },
        {
            "type": "error",
            "name": "AuditorRegistry__InvalidAuditor",
            "inputs": [
                {
                    "name": "",
                    "type": "address",
                    "internalType": "address"
                }
            ]
        },
        {
            "type": "error",
            "name": "AuditorRegistry__InvalidDeadline",
            "inputs": []
        },
        {
            "type": "error",
            "name": "AuditorRegistry__NotAssigned",
            "inputs": [
                {
                    "name": "",
                    "type": "address",
                    "internalType": "address"
                }
            ]
        },
        {
            "type": "error",
            "name": "AuditorRegistry__NotEnoughAuditor",
            "inputs": []
        },
        {
            "type": "error",
            "name": "AuditorRegistry__VerificationNotExpired",
            "inputs": [
                {
                    "name": "",
                    "type": "bytes32",
                    "internalType": "bytes32"
                },
                {
                    "name": "",
                    "type": "uint64",
                    "internalType": "uint64"
                }
            ]
        },
        {
            "type": "error",
            "name": "AuditorRegistry__VerificationPending",
            "inputs": [
                {
                    "name": "",
                    "type": "bytes32",
                    "internalType": "bytes32"
                },
                {
                    "name": "",
                    "type": "uint64",
                    "internalType": "uint64"
                }
            ]
        },
        {
            "type": "error",
            "name": "OnlyCoordinatorCanFulfill",
            "inputs": [
                {
                    "name": "have",
                    "type": "address",
                    "internalType": "address"
                },
                {
                    "name": "want",
                    "type": "address",
                    "internalType": "address"
                }
            ]
        },
        {
            "type": "error",
            "name": "OnlyOwnerOrCoordinator",
            "inputs": [
                {
                    "name": "have",
                    "type": "address",
                    "internalType": "address"
                },
                {
                    "name": "owner",
                    "type": "address",
                    "internalType": "address"
                },
                {
                    "name": "coordinator",
                    "type": "address",
                    "internalType": "address"
                }
            ]
        },
        {
            "type": "error",
            "name": "ZeroAddress",
            "inputs": []
        }
    ],
    "bytecode": {
        "object": "0x60e06040525f600455348015610013575f5ffd5b50604051612499380380612499833981016040819052610032916101ec565b8333805f816100885760405162461bcd60e51b815260206004820152601860248201527f43616e6e6f7420736574206f776e657220746f207a65726f000000000000000060448201526064015b60405180910390fd5b5f80546001600160a01b0319166001600160a01b03848116919091179091558116156100b7576100b781610129565b5050506001600160a01b0381166100e15760405163d92e233d60e01b815260040160405180910390fd5b600280546001600160a01b039283166001600160a01b031991821617909155600380549790921696169590951790945560a0919091526080525063ffffffff1660c05261024b565b336001600160a01b038216036101815760405162461bcd60e51b815260206004820152601760248201527f43616e6e6f74207472616e7366657220746f2073656c66000000000000000000604482015260640161007f565b600180546001600160a01b0319166001600160a01b038381169182179092555f8054604051929316917fed8889f560326eb138920d842192f0eb3dd22b4f139c87a2c57538e05bae12789190a350565b80516001600160a01b03811681146101e7575f5ffd5b919050565b5f5f5f5f5f60a08688031215610200575f5ffd5b610209866101d1565b9450610217602087016101d1565b93506040860151925060608601519150608086015163ffffffff8116811461023d575f5ffd5b809150509295509295909350565b60805160a05160c0516122246102755f395f6109c601525f61096f01525f61099501526122245ff3fe608060405260043610610110575f3560e01c80638ea981171161009d578063bb5b9f9911610062578063bb5b9f9914610394578063bd30b6b6146103cd578063ee162dc3146103ec578063f007a7ba14610430578063f2fde38b14610443575f5ffd5b80638ea98117146102c2578063921562cc146102e15780639dc23315146103005780639eccacf61461032c578063a3db6cef1461034b575f5ffd5b80633625a884116100e35780633625a884146101b557806362ffc1d61461020457806379ba50971461021857806381d12c581461022c5780638da5cb5b14610292575f5ffd5b806318673a23146101145780631fe543e3146101355780632b2badb3146101545780632f4d158314610189575b5f5ffd5b34801561011f575f5ffd5b5061013361012e366004611a63565b610462565b005b348015610140575f5ffd5b5061013361014f366004611a8d565b61056d565b34801561015f575f5ffd5b5061017361016e366004611b05565b6105bd565b6040516101809190611b60565b60405180910390f35b348015610194575f5ffd5b506101a86101a3366004611a63565b6106e5565b6040516101809190611bef565b3480156101c0575f5ffd5b506101f66101cf366004611a63565b5f918252600c602090815260408084206001600160401b0393909316845291905290205490565b604051908152602001610180565b34801561020f575f5ffd5b506101f6600581565b348015610223575f5ffd5b50610133610761565b348015610237575f5ffd5b5061026f610246366004611c01565b600e6020525f908152604090208054600182015460029092015490916001600160401b03169083565b604080519384526001600160401b03909216602084015290820152606001610180565b34801561029d575f5ffd5b505f546001600160a01b03165b6040516001600160a01b039091168152602001610180565b3480156102cd575f5ffd5b506101336102dc366004611b05565b61080a565b3480156102ec575f5ffd5b506101336102fb366004611c18565b6108fa565b34801561030b575f5ffd5b5061031f61031a366004611a63565b610ad0565b6040516101809190611c4b565b348015610337575f5ffd5b506002546102aa906001600160a01b031681565b348015610356575f5ffd5b50610384610365366004611a63565b600d60209081525f928352604080842090915290825290205460ff1681565b6040519015158152602001610180565b34801561039f575f5ffd5b506103846103ae366004611a63565b600960209081525f928352604080842090915290825290205460ff1681565b3480156103d8575f5ffd5b506101336103e7366004611cb1565b610b73565b3480156103f7575f5ffd5b50610384610406366004611a63565b5f9182526009602090815260408084206001600160401b0393909316845291905290205460ff1690565b61013361043e366004611d06565b610e11565b34801561044e575f5ffd5b5061013361045d366004611b05565b610fba565b5f828152600c602090815260408083206001600160401b03851684529091529020548015806104915750804211155b156104c65760405163fc25792f60e01b8152600481018490526001600160401b03831660248201526044015b60405180910390fd5b5f838152600d602090815260408083206001600160401b038616845290915290205460ff161561051b5760405163112d2b2b60e01b8152600481018490526001600160401b03831660248201526044016104bd565b5f8381526008602090815260408083206001600160401b038616845290915281208054909190810361054e57505f61055b565b6105588585610fce565b90505b6105668585836110b6565b5050505050565b6002546001600160a01b031633146105ad5760025460405163073e64fd60e21b81523360048201526001600160a01b0390911660248201526044016104bd565b6105b8838383611252565b505050565b6105f66040518060a001604052805f151581526020015f6001600160a01b031681526020015f81526020015f8152602001606081525090565b6001600160a01b038083165f90815260056020908152604091829020825160a081018452815460ff8116151582526101009004909416918401919091526001810154918301919091526002810154606083015260038101805460808401919061065e90611db6565b80601f016020809104026020016040519081016040528092919081815260200182805461068a90611db6565b80156106d55780601f106106ac576101008083540402835291602001916106d5565b820191905f5260205f20905b8154815290600101906020018083116106b857829003601f168201915b5050505050815250509050919050565b5f828152600b602090815260408083206001600160401b038516845282529182902080548351818402810184019094528084526060939283018282801561075357602002820191905f5260205f20905b81546001600160a01b03168152600190910190602001808311610735575b505050505090505b92915050565b6001546001600160a01b031633146107b45760405162461bcd60e51b815260206004820152601660248201527526bab9ba10313290383937b837b9b2b21037bbb732b960511b60448201526064016104bd565b5f8054336001600160a01b0319808316821784556001805490911690556040516001600160a01b0390921692909183917f8be0079c531659141344cd1fd0a4f28419497f9722a3daafe3b4186f6b6457e091a350565b5f546001600160a01b0316331480159061082f57506002546001600160a01b03163314155b1561087f57336108465f546001600160a01b031690565b60025460405163061db9c160e01b81526001600160a01b03938416600482015291831660248301529190911660448201526064016104bd565b6001600160a01b0381166108a65760405163d92e233d60e01b815260040160405180910390fd5b600280546001600160a01b0319166001600160a01b0383169081179091556040519081527fd1a6a14209a385a964d036e404cb5cfb71f4000cdb03c9366292430787261be69060200160405180910390a150565b42811161091a5760405163c11dfc9760e01b815260040160405180910390fd5b6007546005111561093e5760405163fade90a760e01b815260040160405180910390fd5b5f60025f9054906101000a90046001600160a01b03166001600160a01b0316639b1c385e6040518060c001604052807f000000000000000000000000000000000000000000000000000000000000000081526020017f00000000000000000000000000000000000000000000000000000000000000008152602001600361ffff1681526020017f000000000000000000000000000000000000000000000000000000000000000063ffffffff168152602001600263ffffffff168152602001610a1660405180602001604052805f15158152506115b6565b8152506040518263ffffffff1660e01b8152600401610a359190611dee565b6020604051808303815f875af1158015610a51573d5f5f3e3d5ffd5b505050506040513d601f19601f82011682018060405250810190610a759190611e4a565b604080516060810182529586526001600160401b0394851660208088019182528783019586525f938452600e90529120945185555160018501805467ffffffffffffffff191691909416179092555160029092019190915550565b5f8281526008602090815260408083206001600160401b03851684528252808320805482518185028101850190935280835260609492939192909184015b82821015610b67575f8481526020908190206040805160608101825260028602909201805460ff81161515845261010090046001600160a01b031683850152600190810154918301919091529083529092019101610b0e565b50505050905092915050565b335f9081526005602052604090205460ff16610ba4576040516333be6c7b60e11b81523360048201526024016104bd565b5f838152600a602090815260408083206001600160401b0386168452825280832033845290915290205460ff16610bf057604051632105738160e01b81523360048201526024016104bd565b5f838152600d602090815260408083206001600160401b038616845290915290205460ff1615610c455760405163112d2b2b60e01b8152600481018490526001600160401b03831660248201526044016104bd565b5f838152600c602090815260408083206001600160401b03861684529091529020548015801590610c7557508042115b15610ca55760405163ac0fa2df60e01b8152600481018590526001600160401b03841660248201526044016104bd565b5f8481526008602090815260408083206001600160401b03871684529091528120905b8154811015610d3357336001600160a01b0316828281548110610ced57610ced611e61565b5f91825260209091206002909102015461010090046001600160a01b031603610d2b576040516332bbc85760e21b81523360048201526024016104bd565b600101610cc8565b6040805160608101825285151580825233602080840182815242858701908152885460018082018b555f8b815285902097516002909202909701805493516001600160a01b031661010002610100600160a81b0319921515929092166001600160a81b0319909416939093171782555194019390935592519081526001600160401b0388169189917f1ae397264104e74add86ee8d3ed5beca41c96c8e07245ed08065bf8bfe695ac0910160405180910390a48154600511610e09575f610dfa8787610fce565b9050610e078787836110b6565b505b505050505050565b600354670de0b6b3a764000090610e329034906001600160a01b0316611627565b1015610e535760405163988f873360e01b81523360048201526024016104bd565b335f9081526005602052604090205460ff1615610e855760405163d9d9a4cf60e01b81523360048201526024016104bd565b6040805160a081018252600180825233602080840182815260328587019081523460608701908152608087018981525f9586526005909452969093208551815492516001600160a81b0319909316901515610100600160a81b031916176101006001600160a01b039093169290920291909117815591519282019290925592516002840155519091906003820190610f1d9082611eb9565b5050600780546001810182555f9182527fa66cc928b5edb82af9bd49922954155ab7b0942694bea4ce44661d9a8736c6880180546001600160a01b0319163317905560048054925090610f6f83611f87565b9190505550336001600160a01b03167fef970b0448282e353d4bd67cc3e899254edfdee2c814e7bcc99ed32fd29c744c8234604051610faf929190611f9f565b60405180910390a250565b610fc26116da565b610fcb8161172e565b50565b5f8281526008602090815260408083206001600160401b0385168452909152812081908190815b81548110156110ac575f60055f84848154811061101457611014611e61565b905f5260205f2090600202015f0160019054906101000a90046001600160a01b03166001600160a01b03166001600160a01b031681526020019081526020015f2060010154905082828154811061106d5761106d611e61565b5f91825260209091206002909102015460ff16156110965761108f8186611fc0565b94506110a3565b6110a08185611fc0565b93505b50600101610ff5565b5050109392505050565b5f838152600d602090815260408083206001600160401b0386168085529083528184208054600160ff1991821617909155878552600984528285208286528452828520805490911686151517905586845260088352818420908452909152812080549091905b808210156112025783151583838154811061113957611139611e61565b5f91825260209091206002909102015460ff161515036111b657600260055f85858154811061116a5761116a611e61565b5f91825260208083206002909202909101546001600160a01b03610100909104168352820192909252604001812060010180549091906111ab908490611fc0565b909155506111f79050565b6111f78383815481106111cb576111cb611e61565b5f91825260209091206002909102015461010090046001600160a01b031667016345785d8a00006117d6565b60019091019061111c565b604080518515158152602081018390526001600160401b0387169188917fcbbff0da21fdf6015dc3c1e65b0aa58c1be9e69607856d26d2fefba2d1610329910160405180910390a3505050505050565b5f838152600e602090815260408083208151606081018352815480825260018301546001600160401b0390811683870190815260029094015483860152908652600c85528386209251168552925290912054156112db5780516020820151604051633eed908560e01b815260048101929092526001600160401b031660248201526044016104bd565b5f83835f8181106112ee576112ee611e61565b9050602002013590505f600780548060200260200160405190810160405280929190818152602001828054801561134c57602002820191905f5260205f20905b81546001600160a01b0316815260019091019060200180831161132e575b50505060408087015187515f908152600c6020908152838220818b01516001600160401b03168352905291822055600754939450929150505b6005821015611460575f6113998383611fd3565b6040805160208101889052908101859052606001604051602081830303815290604052805190602001205f1c6113cf9190611ffa565b6113d99084611fc0565b90508381815181106113ed576113ed611e61565b602002602001015184848151811061140757611407611e61565b602002602001015185858151811061142157611421611e61565b6020026020010186848151811061143a5761143a611e61565b6001600160a01b0393841660209182029290920101529116905250600190910190611385565b60408051600580825260c082019092525f916020820160a0803683370190505090505f92505b600583101561155c575f8484815181106114a2576114a2611e61565b60200260200101519050808285815181106114bf576114bf611e61565b6001600160a01b0392831660209182029290920181019190915288515f908152600a825260408082208b840180516001600160401b03908116855291855282842096909516808452958452818320805460ff191660019081179091558c518452600b8552828420955190911683529383528120805480850182559082529190200180546001600160a01b0319169092179091559290920191611486565b85602001516001600160401b0316865f01517f84530db64e0f5cebacdda0f200d2abb351275571d5b6a1fa0f5eb9fdc56152558389604001516040516115a392919061200d565b60405180910390a3505050505050505050565b60607f92fd13387c7fe7befbc38d303d6468778fb9731bc4583f17d92989c6fcfdeaaa826040516024016115ef91511515815260200190565b60408051601f198184030181529190526020810180516001600160e01b03166001600160e01b03199093169290921790915292915050565b5f5f826001600160a01b031663313ce5676040518163ffffffff1660e01b8152600401602060405180830381865afa158015611665573d5f5f3e3d5ffd5b505050506040513d601f19601f82011682018060405250810190611689919061201f565b9050670de0b6b3a7640000846116a083601261203f565b6116ab90600a61213b565b6116b4866118df565b6116be9190612149565b6116c89190612149565b6116d29190612160565b949350505050565b5f546001600160a01b0316331461172c5760405162461bcd60e51b815260206004820152601660248201527527b7363c9031b0b63630b1363290313c9037bbb732b960511b60448201526064016104bd565b565b336001600160a01b038216036117865760405162461bcd60e51b815260206004820152601760248201527f43616e6e6f74207472616e7366657220746f2073656c6600000000000000000060448201526064016104bd565b600180546001600160a01b0319166001600160a01b038381169182179092555f8054604051929316917fed8889f560326eb138920d842192f0eb3dd22b4f139c87a2c57538e05bae12789190a350565b6001600160a01b0382165f9081526005602052604081206002018054839290611800908490611fd3565b90915550506001600160a01b0382165f9081526005602081905260408220600101805491929091611832908490611fd3565b90915550506003546001600160a01b038381165f90815260056020526040902060020154670de0b6b3a76400009261186a9216611627565b1015611898576001600160a01b0382165f908152600560205260409020805460ff191690556118988261194d565b816001600160a01b03167fe5cecdfbb3735553bd0fada85bc2e788b9c3a5e5c3be17a563b34776261353ce826040516118d391815260200190565b60405180910390a25050565b5f5f826001600160a01b031663feaf968c6040518163ffffffff1660e01b815260040160a060405180830381865afa15801561191d573d5f5f3e3d5ffd5b505050506040513d601f19601f82011682018060405250810190611941919061218c565b50919695505050505050565b6001600160a01b0381165f9081526006602052604081205460075490919061197790600190611fd3565b90505f6007828154811061198d5761198d611e61565b5f91825260209091200154600780546001600160a01b0390921692508291859081106119bb576119bb611e61565b5f91825260208083209190910180546001600160a01b0319166001600160a01b0394851617905591831681526006909152604090208390556007805480611a0457611a046121da565b5f828152602080822083015f1990810180546001600160a01b03191690559092019092556001600160a01b0395909516815260069094525050604082209190915550565b80356001600160401b0381168114611a5e575f5ffd5b919050565b5f5f60408385031215611a74575f5ffd5b82359150611a8460208401611a48565b90509250929050565b5f5f5f60408486031215611a9f575f5ffd5b8335925060208401356001600160401b03811115611abb575f5ffd5b8401601f81018613611acb575f5ffd5b80356001600160401b03811115611ae0575f5ffd5b8660208260051b8401011115611af4575f5ffd5b939660209190910195509293505050565b5f60208284031215611b15575f5ffd5b81356001600160a01b0381168114611b2b575f5ffd5b9392505050565b5f81518084528060208401602086015e5f602082860101526020601f19601f83011685010191505092915050565b6020815281511515602082015260018060a01b03602083015116604082015260408201516060820152606082015160808201525f608083015160a0808401526116d260c0840182611b32565b5f8151808452602084019350602083015f5b82811015611be55781516001600160a01b0316865260209586019590910190600101611bbe565b5093949350505050565b602081525f611b2b6020830184611bac565b5f60208284031215611c11575f5ffd5b5035919050565b5f5f5f60608486031215611c2a575f5ffd5b83359250611c3a60208501611a48565b929592945050506040919091013590565b602080825282518282018190525f918401906040840190835b81811015611ca65783518051151584526020808201516001600160a01b0316818601526040918201519185019190915290930192606090920191600101611c64565b509095945050505050565b5f5f5f60608486031215611cc3575f5ffd5b83359250611cd360208501611a48565b915060408401358015158114611ce7575f5ffd5b809150509250925092565b634e487b7160e01b5f52604160045260245ffd5b5f60208284031215611d16575f5ffd5b81356001600160401b03811115611d2b575f5ffd5b8201601f81018413611d3b575f5ffd5b80356001600160401b03811115611d5457611d54611cf2565b604051601f8201601f19908116603f011681016001600160401b0381118282101715611d8257611d82611cf2565b604052818152828201602001861015611d99575f5ffd5b816020840160208301375f91810160200191909152949350505050565b600181811c90821680611dca57607f821691505b602082108103611de857634e487b7160e01b5f52602260045260245ffd5b50919050565b60208152815160208201526020820151604082015261ffff604083015116606082015263ffffffff606083015116608082015263ffffffff60808301511660a08201525f60a083015160c0808401526116d260e0840182611b32565b5f60208284031215611e5a575f5ffd5b5051919050565b634e487b7160e01b5f52603260045260245ffd5b601f8211156105b857805f5260205f20601f840160051c81016020851015611e9a5750805b601f840160051c820191505b81811015610566575f8155600101611ea6565b81516001600160401b03811115611ed257611ed2611cf2565b611ee681611ee08454611db6565b84611e75565b6020601f821160018114611f18575f8315611f015750848201515b5f19600385901b1c1916600184901b178455610566565b5f84815260208120601f198516915b82811015611f475787850151825560209485019460019092019101611f27565b5084821015611f6457868401515f19600387901b60f8161c191681555b50505050600190811b01905550565b634e487b7160e01b5f52601160045260245ffd5b5f60018201611f9857611f98611f73565b5060010190565b604081525f611fb16040830185611b32565b90508260208301529392505050565b8082018082111561075b5761075b611f73565b8181038181111561075b5761075b611f73565b634e487b7160e01b5f52601260045260245ffd5b5f8261200857612008611fe6565b500690565b604081525f611fb16040830185611bac565b5f6020828403121561202f575f5ffd5b815160ff81168114611b2b575f5ffd5b60ff828116828216039081111561075b5761075b611f73565b6001815b60018411156120935780850481111561207757612077611f73565b600184161561208557908102905b60019390931c92800261205c565b935093915050565b5f826120a95750600161075b565b816120b557505f61075b565b81600181146120cb57600281146120d5576120f1565b600191505061075b565b60ff8411156120e6576120e6611f73565b50506001821b61075b565b5060208310610133831016604e8410600b8410161715612114575081810a61075b565b6121205f198484612058565b805f190482111561213357612133611f73565b029392505050565b5f611b2b60ff84168361209b565b808202811582820484141761075b5761075b611f73565b5f8261216e5761216e611fe6565b500490565b805169ffffffffffffffffffff81168114611a5e575f5ffd5b5f5f5f5f5f60a086880312156121a0575f5ffd5b6121a986612173565b602087015160408801516060890151929750909550935091506121ce60808701612173565b90509295509295909350565b634e487b7160e01b5f52603160045260245ffdfea2646970667358221220379532581f00662732ae9bf279bd07f4438445e4ccd856d289b671ea0e90c93864736f6c634300081e0033",
        "linkReferences": {}
    },
    "methodIdentifiers": {
        "MIN_AUDITORS()": "62ffc1d6",
        "acceptOwnership()": "79ba5097",
        "finalizeExpired(bytes32,uint64)": "18673a23",
        "finalized(bytes32,uint64)": "a3db6cef",
        "getAuditor(address)": "2b2badb3",
        "getVerificationAssignments(bytes32,uint64)": "2f4d1583",
        "getVerificationDeadline(bytes32,uint64)": "3625a884",
        "getVerificationResult(bytes32,uint64)": "ee162dc3",
        "getVerifications(bytes32,uint64)": "9dc23315",
        "owner()": "8da5cb5b",
        "rawFulfillRandomWords(uint256,uint256[])": "1fe543e3",
        "registerAuditor(string)": "f007a7ba",
        "requestVerification(bytes32,uint64,uint256)": "921562cc",
        "requests(uint256)": "81d12c58",
        "s_vrfCoordinator()": "9eccacf6",
        "setCoordinator(address)": "8ea98117",
        "transferOwnership(address)": "f2fde38b",
        "verificationResult(bytes32,uint64)": "bb5b9f99",
        "verify(bytes32,uint64,bool)": "bd30b6b6"
    },
    "id": 34
}