{
    "abi": [
        {
            "type": "function",
            "name": "addLog",
            "inputs": [
                {
                    "name": "seasonStepId",
                    "type": "uint64",
                    "internalType": "uint64"
                },
                {
                    "name": "logId",
                    "type": "uint64",
                    "internalType": "uint64"
                },
                {
                    "name": "hashedData",
                    "type": "string",
                    "internalType": "string"
                }
            ],
            "outputs": [],
            "stateMutability": "nonpayable"
        },
        {
            "type": "function",
            "name": "addStep",
            "inputs": [
                {
                    "name": "seasonId",
                    "type": "uint64",
                    "internalType": "uint64"
                },
                {
                    "name": "seasonStepId",
                    "type": "uint64",
                    "internalType": "uint64"
                },
                {
                    "name": "hashedData",
                    "type": "string",
                    "internalType": "string"
                }
            ],
            "outputs": [],
            "stateMutability": "nonpayable"
        },
        {
            "type": "function",
            "name": "getLog",
            "inputs": [
                {
                    "name": "logId",
                    "type": "uint64",
                    "internalType": "uint64"
                }
            ],
            "outputs": [
                {
                    "name": "",
                    "type": "string",
                    "internalType": "string"
                }
            ],
            "stateMutability": "view"
        },
        {
            "type": "function",
            "name": "getLogs",
            "inputs": [
                {
                    "name": "seasonStepId",
                    "type": "uint64",
                    "internalType": "uint64"
                }
            ],
            "outputs": [
                {
                    "name": "",
                    "type": "uint64[]",
                    "internalType": "uint64[]"
                },
                {
                    "name": "",
                    "type": "string[]",
                    "internalType": "string[]"
                }
            ],
            "stateMutability": "view"
        },
        {
            "type": "function",
            "name": "getStep",
            "inputs": [
                {
                    "name": "seasonStepId",
                    "type": "uint64",
                    "internalType": "uint64"
                }
            ],
            "outputs": [
                {
                    "name": "",
                    "type": "string",
                    "internalType": "string"
                }
            ],
            "stateMutability": "view"
        },
        {
            "type": "function",
            "name": "getSteps",
            "inputs": [
                {
                    "name": "seasonId",
                    "type": "uint64",
                    "internalType": "uint64"
                }
            ],
            "outputs": [
                {
                    "name": "",
                    "type": "uint64[]",
                    "internalType": "uint64[]"
                },
                {
                    "name": "",
                    "type": "string[]",
                    "internalType": "string[]"
                }
            ],
            "stateMutability": "view"
        },
        {
            "type": "event",
            "name": "LogAdded",
            "inputs": [
                {
                    "name": "logId",
                    "type": "uint64",
                    "indexed": false,
                    "internalType": "uint64"
                },
                {
                    "name": "hashedData",
                    "type": "string",
                    "indexed": false,
                    "internalType": "string"
                }
            ],
            "anonymous": false
        },
        {
            "type": "event",
            "name": "StepAdded",
            "inputs": [
                {
                    "name": "seasonId",
                    "type": "uint64",
                    "indexed": false,
                    "internalType": "uint64"
                },
                {
                    "name": "seasonStepId",
                    "type": "uint64",
                    "indexed": false,
                    "internalType": "uint64"
                },
                {
                    "name": "hashedData",
                    "type": "string",
                    "indexed": false,
                    "internalType": "string"
                }
            ],
            "anonymous": false
        },
        {
            "type": "error",
            "name": "ProcessTracking__InvalidLogId",
            "inputs": [
                {
                    "name": "",
                    "type": "uint64",
                    "internalType": "uint64"
                }
            ]
        },
        {
            "type": "error",
            "name": "ProcessTracking__InvalidStepId",
            "inputs": [
                {
                    "name": "",
                    "type": "uint64",
                    "internalType": "uint64"
                }
            ]
        }
    ],
    "bytecode": {
        "object": "0x6080604052348015600e575f5ffd5b506112858061001c5f395ff3fe608060405234801561000f575f5ffd5b5060043610610060575f3560e01c806327d39e051461006457806335295464146100945780635be800b1146100c55780637ff351fc146100e1578063ec8c2f1314610112578063fcabfe2414610142575b5f5ffd5b61007e60048036038101906100799190610a12565b61015e565b60405161008b9190610aad565b60405180910390f35b6100ae60048036038101906100a99190610a12565b610212565b6040516100bc929190610c87565b60405180910390f35b6100df60048036038101906100da9190610de8565b610433565b005b6100fb60048036038101906100f69190610a12565b61058e565b604051610109929190610c87565b60405180910390f35b61012c60048036038101906101279190610a12565b6107b0565b6040516101399190610aad565b60405180910390f35b61015c60048036038101906101579190610de8565b610865565b005b60605f5f8367ffffffffffffffff1667ffffffffffffffff1681526020019081526020015f20805461018f90610e81565b80601f01602080910402602001604051908101604052809291908181526020018280546101bb90610e81565b80156102065780601f106101dd57610100808354040283529160200191610206565b820191905f5260205f20905b8154815290600101906020018083116101e957829003601f168201915b50505050509050919050565b6060805f60015f8567ffffffffffffffff1667ffffffffffffffff1681526020019081526020015f208054806020026020016040519081016040528092919081815260200182805480156102b657602002820191905f5260205f20905f905b82829054906101000a900467ffffffffffffffff1667ffffffffffffffff16815260200190600801906020826007010492830192600103820291508084116102715790505b505050505090505f815167ffffffffffffffff8111156102d9576102d8610cc4565b5b60405190808252806020026020018201604052801561030c57816020015b60608152602001906001900390816102f75790505b5090505f5f90505b82518163ffffffff161015610425575f5f848363ffffffff168151811061033e5761033d610eb1565b5b602002602001015167ffffffffffffffff1667ffffffffffffffff1681526020019081526020015f20805461037290610e81565b80601f016020809104026020016040519081016040528092919081815260200182805461039e90610e81565b80156103e95780601f106103c0576101008083540402835291602001916103e9565b820191905f5260205f20905b8154815290600101906020018083116103cc57829003601f168201915b5050505050828263ffffffff168151811061040757610406610eb1565b5b6020026020010181905250808061041d90610f1a565b915050610314565b828294509450505050915091565b5f5f5f8467ffffffffffffffff1667ffffffffffffffff1681526020019081526020015f20805461046390610e81565b9050146104a757816040517f7bebc50000000000000000000000000000000000000000000000000000000000815260040161049e9190610f54565b60405180910390fd5b805f5f8467ffffffffffffffff1667ffffffffffffffff1681526020019081526020015f2090816104d89190611116565b5060015f8467ffffffffffffffff1667ffffffffffffffff1681526020019081526020015f2082908060018154018082558091505060019003905f5260205f2090600491828204019190066008029091909190916101000a81548167ffffffffffffffff021916908367ffffffffffffffff1602179055507f43ce8f232bb7fb5fc53c041f1c45ef6c16d7c3f7ab22cec73a50f69fdc421e3882826040516105819291906111e5565b60405180910390a1505050565b6060805f60035f8567ffffffffffffffff1667ffffffffffffffff1681526020019081526020015f2080548060200260200160405190810160405280929190818152602001828054801561063257602002820191905f5260205f20905f905b82829054906101000a900467ffffffffffffffff1667ffffffffffffffff16815260200190600801906020826007010492830192600103820291508084116105ed5790505b505050505090505f815167ffffffffffffffff81111561065557610654610cc4565b5b60405190808252806020026020018201604052801561068857816020015b60608152602001906001900390816106735790505b5090505f5f90505b82518163ffffffff1610156107a25760025f848363ffffffff16815181106106bb576106ba610eb1565b5b602002602001015167ffffffffffffffff1667ffffffffffffffff1681526020019081526020015f2080546106ef90610e81565b80601f016020809104026020016040519081016040528092919081815260200182805461071b90610e81565b80156107665780601f1061073d57610100808354040283529160200191610766565b820191905f5260205f20905b81548152906001019060200180831161074957829003601f168201915b5050505050828263ffffffff168151811061078457610783610eb1565b5b6020026020010181905250808061079a90610f1a565b915050610690565b828294509450505050915091565b606060025f8367ffffffffffffffff1667ffffffffffffffff1681526020019081526020015f2080546107e290610e81565b80601f016020809104026020016040519081016040528092919081815260200182805461080e90610e81565b80156108595780601f1061083057610100808354040283529160200191610859565b820191905f5260205f20905b81548152906001019060200180831161083c57829003601f168201915b50505050509050919050565b5f60025f8467ffffffffffffffff1667ffffffffffffffff1681526020019081526020015f20805461089690610e81565b9050146108da57816040517f5a69a41c0000000000000000000000000000000000000000000000000000000081526004016108d19190610f54565b60405180910390fd5b8060025f8467ffffffffffffffff1667ffffffffffffffff1681526020019081526020015f20908161090c9190611116565b5060035f8467ffffffffffffffff1667ffffffffffffffff1681526020019081526020015f2082908060018154018082558091505060019003905f5260205f2090600491828204019190066008029091909190916101000a81548167ffffffffffffffff021916908367ffffffffffffffff1602179055507f5e46e01b5d5c245b823746555af0820246e0c5eeb24dcc1fae750cffb8741fe08383836040516109b793929190611213565b60405180910390a1505050565b5f604051905090565b5f5ffd5b5f5ffd5b5f67ffffffffffffffff82169050919050565b6109f1816109d5565b81146109fb575f5ffd5b50565b5f81359050610a0c816109e8565b92915050565b5f60208284031215610a2757610a266109cd565b5b5f610a34848285016109fe565b91505092915050565b5f81519050919050565b5f82825260208201905092915050565b8281835e5f83830152505050565b5f601f19601f8301169050919050565b5f610a7f82610a3d565b610a898185610a47565b9350610a99818560208601610a57565b610aa281610a65565b840191505092915050565b5f6020820190508181035f830152610ac58184610a75565b905092915050565b5f81519050919050565b5f82825260208201905092915050565b5f819050602082019050919050565b610aff816109d5565b82525050565b5f610b108383610af6565b60208301905092915050565b5f602082019050919050565b5f610b3282610acd565b610b3c8185610ad7565b9350610b4783610ae7565b805f5b83811015610b77578151610b5e8882610b05565b9750610b6983610b1c565b925050600181019050610b4a565b5085935050505092915050565b5f81519050919050565b5f82825260208201905092915050565b5f819050602082019050919050565b5f82825260208201905092915050565b5f610bc782610a3d565b610bd18185610bad565b9350610be1818560208601610a57565b610bea81610a65565b840191505092915050565b5f610c008383610bbd565b905092915050565b5f602082019050919050565b5f610c1e82610b84565b610c288185610b8e565b935083602082028501610c3a85610b9e565b805f5b85811015610c755784840389528151610c568582610bf5565b9450610c6183610c08565b925060208a01995050600181019050610c3d565b50829750879550505050505092915050565b5f6040820190508181035f830152610c9f8185610b28565b90508181036020830152610cb38184610c14565b90509392505050565b5f5ffd5b5f5ffd5b7f4e487b71000000000000000000000000000000000000000000000000000000005f52604160045260245ffd5b610cfa82610a65565b810181811067ffffffffffffffff82111715610d1957610d18610cc4565b5b80604052505050565b5f610d2b6109c4565b9050610d378282610cf1565b919050565b5f67ffffffffffffffff821115610d5657610d55610cc4565b5b610d5f82610a65565b9050602081019050919050565b828183375f83830152505050565b5f610d8c610d8784610d3c565b610d22565b905082815260208101848484011115610da857610da7610cc0565b5b610db3848285610d6c565b509392505050565b5f82601f830112610dcf57610dce610cbc565b5b8135610ddf848260208601610d7a565b91505092915050565b5f5f5f60608486031215610dff57610dfe6109cd565b5b5f610e0c868287016109fe565b9350506020610e1d868287016109fe565b925050604084013567ffffffffffffffff811115610e3e57610e3d6109d1565b5b610e4a86828701610dbb565b9150509250925092565b7f4e487b71000000000000000000000000000000000000000000000000000000005f52602260045260245ffd5b5f6002820490506001821680610e9857607f821691505b602082108103610eab57610eaa610e54565b5b50919050565b7f4e487b71000000000000000000000000000000000000000000000000000000005f52603260045260245ffd5b7f4e487b71000000000000000000000000000000000000000000000000000000005f52601160045260245ffd5b5f63ffffffff82169050919050565b5f610f2482610f0b565b915063ffffffff8203610f3a57610f39610ede565b5b600182019050919050565b610f4e816109d5565b82525050565b5f602082019050610f675f830184610f45565b92915050565b5f819050815f5260205f209050919050565b5f6020601f8301049050919050565b5f82821b905092915050565b5f60088302610fc97fffffffffffffffffffffffffffffffffffffffffffffffffffffffffffffffff82610f8e565b610fd38683610f8e565b95508019841693508086168417925050509392505050565b5f819050919050565b5f819050919050565b5f61101761101261100d84610feb565b610ff4565b610feb565b9050919050565b5f819050919050565b61103083610ffd565b61104461103c8261101e565b848454610f9a565b825550505050565b5f5f905090565b61105b61104c565b611066818484611027565b505050565b5b818110156110895761107e5f82611053565b60018101905061106c565b5050565b601f8211156110ce5761109f81610f6d565b6110a884610f7f565b810160208510156110b7578190505b6110cb6110c385610f7f565b83018261106b565b50505b505050565b5f82821c905092915050565b5f6110ee5f19846008026110d3565b1980831691505092915050565b5f61110683836110df565b9150826002028217905092915050565b61111f82610a3d565b67ffffffffffffffff81111561113857611137610cc4565b5b6111428254610e81565b61114d82828561108d565b5f60209050601f83116001811461117e575f841561116c578287015190505b61117685826110fb565b8655506111dd565b601f19841661118c86610f6d565b5f5b828110156111b35784890151825560018201915060208501945060208101905061118e565b868310156111d057848901516111cc601f8916826110df565b8355505b6001600288020188555050505b505050505050565b5f6040820190506111f85f830185610f45565b818103602083015261120a8184610a75565b90509392505050565b5f6060820190506112265f830186610f45565b6112336020830185610f45565b81810360408301526112458184610a75565b905094935050505056fea2646970667358221220e699c8b79273579628c6ffe731b588adf0e47476f96ed0403c7f3cb6fa9c919164736f6c634300081e0033",
        "linkReferences": {}
    },
    "methodIdentifiers": {
        "addLog(uint64,uint64,string)": "5be800b1",
        "addStep(uint64,uint64,string)": "fcabfe24",
        "getLog(uint64)": "27d39e05",
        "getLogs(uint64)": "35295464",
        "getStep(uint64)": "ec8c2f13",
        "getSteps(uint64)": "7ff351fc"
    },
    "id": 16
}