{
    "abi": [
        {
            "type": "function",
            "name": "addLog",
            "inputs": [
                {
                    "name": "seasonStepId",
                    "type": "uint64",
                    "internalType": "uint64"
                },
                {
                    "name": "logId",
                    "type": "uint64",
                    "internalType": "uint64"
                },
                {
                    "name": "hashedData",
                    "type": "string",
                    "internalType": "string"
                }
            ],
            "outputs": [],
            "stateMutability": "nonpayable"
        },
        {
            "type": "function",
            "name": "addStep",
            "inputs": [
                {
                    "name": "seasonId",
                    "type": "uint64",
                    "internalType": "uint64"
                },
                {
                    "name": "seasonStepId",
                    "type": "uint64",
                    "internalType": "uint64"
                },
                {
                    "name": "hashedData",
                    "type": "string",
                    "internalType": "string"
                }
            ],
            "outputs": [],
            "stateMutability": "nonpayable"
        },
        {
            "type": "function",
            "name": "addTempLog",
            "inputs": [
                {
                    "name": "logId",
                    "type": "uint64",
                    "internalType": "uint64"
                },
                {
                    "name": "hashedData",
                    "type": "string",
                    "internalType": "string"
                }
            ],
            "outputs": [],
            "stateMutability": "nonpayable"
        },
        {
            "type": "function",
            "name": "getLog",
            "inputs": [
                {
                    "name": "logId",
                    "type": "uint64",
                    "internalType": "uint64"
                }
            ],
            "outputs": [
                {
                    "name": "",
                    "type": "string",
                    "internalType": "string"
                }
            ],
            "stateMutability": "view"
        },
        {
            "type": "function",
            "name": "getLogs",
            "inputs": [
                {
                    "name": "seasonStepId",
                    "type": "uint64",
                    "internalType": "uint64"
                }
            ],
            "outputs": [
                {
                    "name": "",
                    "type": "uint64[]",
                    "internalType": "uint64[]"
                },
                {
                    "name": "",
                    "type": "string[]",
                    "internalType": "string[]"
                }
            ],
            "stateMutability": "view"
        },
        {
            "type": "function",
            "name": "getStep",
            "inputs": [
                {
                    "name": "seasonStepId",
                    "type": "uint64",
                    "internalType": "uint64"
                }
            ],
            "outputs": [
                {
                    "name": "",
                    "type": "string",
                    "internalType": "string"
                }
            ],
            "stateMutability": "view"
        },
        {
            "type": "function",
            "name": "getSteps",
            "inputs": [
                {
                    "name": "seasonId",
                    "type": "uint64",
                    "internalType": "uint64"
                }
            ],
            "outputs": [
                {
                    "name": "",
                    "type": "uint64[]",
                    "internalType": "uint64[]"
                },
                {
                    "name": "",
                    "type": "string[]",
                    "internalType": "string[]"
                }
            ],
            "stateMutability": "view"
        },
        {
            "type": "function",
            "name": "getTempLog",
            "inputs": [
                {
                    "name": "logId",
                    "type": "uint64",
                    "internalType": "uint64"
                }
            ],
            "outputs": [
                {
                    "name": "",
                    "type": "string",
                    "internalType": "string"
                }
            ],
            "stateMutability": "view"
        },
        {
            "type": "event",
            "name": "LogAdded",
            "inputs": [
                {
                    "name": "logId",
                    "type": "uint64",
                    "indexed": false,
                    "internalType": "uint64"
                },
                {
                    "name": "hashedData",
                    "type": "string",
                    "indexed": false,
                    "internalType": "string"
                }
            ],
            "anonymous": false
        },
        {
            "type": "event",
            "name": "StepAdded",
            "inputs": [
                {
                    "name": "seasonId",
                    "type": "uint64",
                    "indexed": false,
                    "internalType": "uint64"
                },
                {
                    "name": "seasonStepId",
                    "type": "uint64",
                    "indexed": false,
                    "internalType": "uint64"
                },
                {
                    "name": "hashedData",
                    "type": "string",
                    "indexed": false,
                    "internalType": "string"
                }
            ],
            "anonymous": false
        },
        {
            "type": "event",
            "name": "TempLogAdded",
            "inputs": [
                {
                    "name": "logId",
                    "type": "uint64",
                    "indexed": false,
                    "internalType": "uint64"
                },
                {
                    "name": "hashedData",
                    "type": "string",
                    "indexed": false,
                    "internalType": "string"
                }
            ],
            "anonymous": false
        },
        {
            "type": "error",
            "name": "ProcessTracking__InvalidLogId",
            "inputs": [
                {
                    "name": "",
                    "type": "uint64",
                    "internalType": "uint64"
                }
            ]
        },
        {
            "type": "error",
            "name": "ProcessTracking__InvalidStepId",
            "inputs": [
                {
                    "name": "",
                    "type": "uint64",
                    "internalType": "uint64"
                }
            ]
        }
    ],
    "bytecode": {
        "object": "0x6080604052348015600e575f5ffd5b506114eb8061001c5f395ff3fe608060405234801561000f575f5ffd5b5060043610610086575f3560e01c8063b5b5771e11610059578063b5b5771e14610138578063d9e4457e14610168578063ec8c2f1314610184578063fcabfe24146101b457610086565b806327d39e051461008a57806335295464146100ba5780635be800b1146100eb5780637ff351fc14610107575b5f5ffd5b6100a4600480360381019061009f9190610c1e565b6101d0565b6040516100b19190610cb9565b60405180910390f35b6100d460048036038101906100cf9190610c1e565b610284565b6040516100e2929190610e93565b60405180910390f35b61010560048036038101906101009190610ff4565b6104a5565b005b610121600480360381019061011c9190610c1e565b610600565b60405161012f929190610e93565b60405180910390f35b610152600480360381019061014d9190610c1e565b610822565b60405161015f9190610cb9565b60405180910390f35b610182600480360381019061017d9190611060565b6108d7565b005b61019e60048036038101906101999190610c1e565b6109bc565b6040516101ab9190610cb9565b60405180910390f35b6101ce60048036038101906101c99190610ff4565b610a71565b005b60605f5f8367ffffffffffffffff1667ffffffffffffffff1681526020019081526020015f208054610201906110e7565b80601f016020809104026020016040519081016040528092919081815260200182805461022d906110e7565b80156102785780601f1061024f57610100808354040283529160200191610278565b820191905f5260205f20905b81548152906001019060200180831161025b57829003601f168201915b50505050509050919050565b6060805f60025f8567ffffffffffffffff1667ffffffffffffffff1681526020019081526020015f2080548060200260200160405190810160405280929190818152602001828054801561032857602002820191905f5260205f20905f905b82829054906101000a900467ffffffffffffffff1667ffffffffffffffff16815260200190600801906020826007010492830192600103820291508084116102e35790505b505050505090505f815167ffffffffffffffff81111561034b5761034a610ed0565b5b60405190808252806020026020018201604052801561037e57816020015b60608152602001906001900390816103695790505b5090505f5f90505b82518163ffffffff161015610497575f5f848363ffffffff16815181106103b0576103af611117565b5b602002602001015167ffffffffffffffff1667ffffffffffffffff1681526020019081526020015f2080546103e4906110e7565b80601f0160208091040260200160405190810160405280929190818152602001828054610410906110e7565b801561045b5780601f106104325761010080835404028352916020019161045b565b820191905f5260205f20905b81548152906001019060200180831161043e57829003601f168201915b5050505050828263ffffffff168151811061047957610478611117565b5b6020026020010181905250808061048f90611180565b915050610386565b828294509450505050915091565b5f5f5f8467ffffffffffffffff1667ffffffffffffffff1681526020019081526020015f2080546104d5906110e7565b90501461051957816040517f7bebc50000000000000000000000000000000000000000000000000000000000815260040161051091906111ba565b60405180910390fd5b805f5f8467ffffffffffffffff1667ffffffffffffffff1681526020019081526020015f20908161054a919061137c565b5060025f8467ffffffffffffffff1667ffffffffffffffff1681526020019081526020015f2082908060018154018082558091505060019003905f5260205f2090600491828204019190066008029091909190916101000a81548167ffffffffffffffff021916908367ffffffffffffffff1602179055507f43ce8f232bb7fb5fc53c041f1c45ef6c16d7c3f7ab22cec73a50f69fdc421e3882826040516105f392919061144b565b60405180910390a1505050565b6060805f60045f8567ffffffffffffffff1667ffffffffffffffff1681526020019081526020015f208054806020026020016040519081016040528092919081815260200182805480156106a457602002820191905f5260205f20905f905b82829054906101000a900467ffffffffffffffff1667ffffffffffffffff168152602001906008019060208260070104928301926001038202915080841161065f5790505b505050505090505f815167ffffffffffffffff8111156106c7576106c6610ed0565b5b6040519080825280602002602001820160405280156106fa57816020015b60608152602001906001900390816106e55790505b5090505f5f90505b82518163ffffffff1610156108145760035f848363ffffffff168151811061072d5761072c611117565b5b602002602001015167ffffffffffffffff1667ffffffffffffffff1681526020019081526020015f208054610761906110e7565b80601f016020809104026020016040519081016040528092919081815260200182805461078d906110e7565b80156107d85780601f106107af576101008083540402835291602001916107d8565b820191905f5260205f20905b8154815290600101906020018083116107bb57829003601f168201915b5050505050828263ffffffff16815181106107f6576107f5611117565b5b6020026020010181905250808061080c90611180565b915050610702565b828294509450505050915091565b606060015f8367ffffffffffffffff1667ffffffffffffffff1681526020019081526020015f208054610854906110e7565b80601f0160208091040260200160405190810160405280929190818152602001828054610880906110e7565b80156108cb5780601f106108a2576101008083540402835291602001916108cb565b820191905f5260205f20905b8154815290600101906020018083116108ae57829003601f168201915b50505050509050919050565b5f60015f8467ffffffffffffffff1667ffffffffffffffff1681526020019081526020015f208054610908906110e7565b90501461094c57816040517f7bebc50000000000000000000000000000000000000000000000000000000000815260040161094391906111ba565b60405180910390fd5b8060015f8467ffffffffffffffff1667ffffffffffffffff1681526020019081526020015f20908161097e919061137c565b507f6a5a80e477469a5975caa3d2e8fbb5f1058471791605ffba9d3da91109484f0182826040516109b092919061144b565b60405180910390a15050565b606060035f8367ffffffffffffffff1667ffffffffffffffff1681526020019081526020015f2080546109ee906110e7565b80601f0160208091040260200160405190810160405280929190818152602001828054610a1a906110e7565b8015610a655780601f10610a3c57610100808354040283529160200191610a65565b820191905f5260205f20905b815481529060010190602001808311610a4857829003601f168201915b50505050509050919050565b5f60035f8467ffffffffffffffff1667ffffffffffffffff1681526020019081526020015f208054610aa2906110e7565b905014610ae657816040517f5a69a41c000000000000000000000000000000000000000000000000000000008152600401610add91906111ba565b60405180910390fd5b8060035f8467ffffffffffffffff1667ffffffffffffffff1681526020019081526020015f209081610b18919061137c565b5060045f8467ffffffffffffffff1667ffffffffffffffff1681526020019081526020015f2082908060018154018082558091505060019003905f5260205f2090600491828204019190066008029091909190916101000a81548167ffffffffffffffff021916908367ffffffffffffffff1602179055507f5e46e01b5d5c245b823746555af0820246e0c5eeb24dcc1fae750cffb8741fe0838383604051610bc393929190611479565b60405180910390a1505050565b5f604051905090565b5f5ffd5b5f5ffd5b5f67ffffffffffffffff82169050919050565b610bfd81610be1565b8114610c07575f5ffd5b50565b5f81359050610c1881610bf4565b92915050565b5f60208284031215610c3357610c32610bd9565b5b5f610c4084828501610c0a565b91505092915050565b5f81519050919050565b5f82825260208201905092915050565b8281835e5f83830152505050565b5f601f19601f8301169050919050565b5f610c8b82610c49565b610c958185610c53565b9350610ca5818560208601610c63565b610cae81610c71565b840191505092915050565b5f6020820190508181035f830152610cd18184610c81565b905092915050565b5f81519050919050565b5f82825260208201905092915050565b5f819050602082019050919050565b610d0b81610be1565b82525050565b5f610d1c8383610d02565b60208301905092915050565b5f602082019050919050565b5f610d3e82610cd9565b610d488185610ce3565b9350610d5383610cf3565b805f5b83811015610d83578151610d6a8882610d11565b9750610d7583610d28565b925050600181019050610d56565b5085935050505092915050565b5f81519050919050565b5f82825260208201905092915050565b5f819050602082019050919050565b5f82825260208201905092915050565b5f610dd382610c49565b610ddd8185610db9565b9350610ded818560208601610c63565b610df681610c71565b840191505092915050565b5f610e0c8383610dc9565b905092915050565b5f602082019050919050565b5f610e2a82610d90565b610e348185610d9a565b935083602082028501610e4685610daa565b805f5b85811015610e815784840389528151610e628582610e01565b9450610e6d83610e14565b925060208a01995050600181019050610e49565b50829750879550505050505092915050565b5f6040820190508181035f830152610eab8185610d34565b90508181036020830152610ebf8184610e20565b90509392505050565b5f5ffd5b5f5ffd5b7f4e487b71000000000000000000000000000000000000000000000000000000005f52604160045260245ffd5b610f0682610c71565b810181811067ffffffffffffffff82111715610f2557610f24610ed0565b5b80604052505050565b5f610f37610bd0565b9050610f438282610efd565b919050565b5f67ffffffffffffffff821115610f6257610f61610ed0565b5b610f6b82610c71565b9050602081019050919050565b828183375f83830152505050565b5f610f98610f9384610f48565b610f2e565b905082815260208101848484011115610fb457610fb3610ecc565b5b610fbf848285610f78565b509392505050565b5f82601f830112610fdb57610fda610ec8565b5b8135610feb848260208601610f86565b91505092915050565b5f5f5f6060848603121561100b5761100a610bd9565b5b5f61101886828701610c0a565b935050602061102986828701610c0a565b925050604084013567ffffffffffffffff81111561104a57611049610bdd565b5b61105686828701610fc7565b9150509250925092565b5f5f6040838503121561107657611075610bd9565b5b5f61108385828601610c0a565b925050602083013567ffffffffffffffff8111156110a4576110a3610bdd565b5b6110b085828601610fc7565b9150509250929050565b7f4e487b71000000000000000000000000000000000000000000000000000000005f52602260045260245ffd5b5f60028204905060018216806110fe57607f821691505b602082108103611111576111106110ba565b5b50919050565b7f4e487b71000000000000000000000000000000000000000000000000000000005f52603260045260245ffd5b7f4e487b71000000000000000000000000000000000000000000000000000000005f52601160045260245ffd5b5f63ffffffff82169050919050565b5f61118a82611171565b915063ffffffff82036111a05761119f611144565b5b600182019050919050565b6111b481610be1565b82525050565b5f6020820190506111cd5f8301846111ab565b92915050565b5f819050815f5260205f209050919050565b5f6020601f8301049050919050565b5f82821b905092915050565b5f6008830261122f7fffffffffffffffffffffffffffffffffffffffffffffffffffffffffffffffff826111f4565b61123986836111f4565b95508019841693508086168417925050509392505050565b5f819050919050565b5f819050919050565b5f61127d61127861127384611251565b61125a565b611251565b9050919050565b5f819050919050565b61129683611263565b6112aa6112a282611284565b848454611200565b825550505050565b5f5f905090565b6112c16112b2565b6112cc81848461128d565b505050565b5b818110156112ef576112e45f826112b9565b6001810190506112d2565b5050565b601f82111561133457611305816111d3565b61130e846111e5565b8101602085101561131d578190505b611331611329856111e5565b8301826112d1565b50505b505050565b5f82821c905092915050565b5f6113545f1984600802611339565b1980831691505092915050565b5f61136c8383611345565b9150826002028217905092915050565b61138582610c49565b67ffffffffffffffff81111561139e5761139d610ed0565b5b6113a882546110e7565b6113b38282856112f3565b5f60209050601f8311600181146113e4575f84156113d2578287015190505b6113dc8582611361565b865550611443565b601f1984166113f2866111d3565b5f5b82811015611419578489015182556001820191506020850194506020810190506113f4565b868310156114365784890151611432601f891682611345565b8355505b6001600288020188555050505b505050505050565b5f60408201905061145e5f8301856111ab565b81810360208301526114708184610c81565b90509392505050565b5f60608201905061148c5f8301866111ab565b61149960208301856111ab565b81810360408301526114ab8184610c81565b905094935050505056fea2646970667358221220a75c2fd0df48fa6fc6dfb11499fb3454227cfc8c4fdea81110765db203fbca6964736f6c634300081e0033",
        "linkReferences": {}
    },
    "methodIdentifiers": {
        "addLog(uint64,uint64,string)": "5be800b1",
        "addStep(uint64,uint64,string)": "fcabfe24",
        "addTempLog(uint64,string)": "d9e4457e",
        "getLog(uint64)": "27d39e05",
        "getLogs(uint64)": "35295464",
        "getStep(uint64)": "ec8c2f13",
        "getSteps(uint64)": "7ff351fc",
        "getTempLog(uint64)": "b5b5771e"
    },
    "id": 37
}