{
    "abi": [
        {
            "type": "constructor",
            "inputs": [
                {
                    "name": "metricSelectionAddress",
                    "type": "address",
                    "internalType": "address"
                }
            ],
            "stateMutability": "nonpayable"
        },
        {
            "type": "function",
            "name": "getMetricSelection",
            "inputs": [],
            "outputs": [
                {
                    "name": "",
                    "type": "address",
                    "internalType": "contract MetricSelection"
                }
            ],
            "stateMutability": "view"
        },
        {
            "type": "function",
            "name": "getTrustRecord",
            "inputs": [
                {
                    "name": "identifier",
                    "type": "bytes32",
                    "internalType": "bytes32"
                },
                {
                    "name": "id",
                    "type": "uint64",
                    "internalType": "uint64"
                }
            ],
            "outputs": [
                {
                    "name": "",
                    "type": "bytes32",
                    "internalType": "bytes32"
                },
                {
                    "name": "",
                    "type": "uint64",
                    "internalType": "uint64"
                },
                {
                    "name": "",
                    "type": "tuple",
                    "internalType": "struct TrustComputation.TrustRecord",
                    "components": [
                        {
                            "name": "accept",
                            "type": "bool",
                            "internalType": "bool"
                        },
                        {
                            "name": "trustScore",
                            "type": "uint128",
                            "internalType": "uint128"
                        },
                        {
                            "name": "timestamp",
                            "type": "uint256",
                            "internalType": "uint256"
                        }
                    ]
                }
            ],
            "stateMutability": "view"
        },
        {
            "type": "function",
            "name": "getTrustRecords",
            "inputs": [
                {
                    "name": "identifier",
                    "type": "bytes32",
                    "internalType": "bytes32"
                },
                {
                    "name": "ids",
                    "type": "uint64[]",
                    "internalType": "uint64[]"
                }
            ],
            "outputs": [
                {
                    "name": "",
                    "type": "bytes32",
                    "internalType": "bytes32"
                },
                {
                    "name": "",
                    "type": "uint64[]",
                    "internalType": "uint64[]"
                },
                {
                    "name": "",
                    "type": "tuple[]",
                    "internalType": "struct TrustComputation.TrustRecord[]",
                    "components": [
                        {
                            "name": "accept",
                            "type": "bool",
                            "internalType": "bool"
                        },
                        {
                            "name": "trustScore",
                            "type": "uint128",
                            "internalType": "uint128"
                        },
                        {
                            "name": "timestamp",
                            "type": "uint256",
                            "internalType": "uint256"
                        }
                    ]
                }
            ],
            "stateMutability": "view"
        },
        {
            "type": "function",
            "name": "processData",
            "inputs": [
                {
                    "name": "identifier",
                    "type": "bytes32",
                    "internalType": "bytes32"
                },
                {
                    "name": "id",
                    "type": "uint64",
                    "internalType": "uint64"
                },
                {
                    "name": "dataType",
                    "type": "string",
                    "internalType": "string"
                },
                {
                    "name": "context",
                    "type": "string",
                    "internalType": "string"
                },
                {
                    "name": "data",
                    "type": "bytes",
                    "internalType": "bytes"
                }
            ],
            "outputs": [],
            "stateMutability": "nonpayable"
        },
        {
            "type": "event",
            "name": "TrustProcessed",
            "inputs": [
                {
                    "name": "identifier",
                    "type": "bytes32",
                    "indexed": true,
                    "internalType": "bytes32"
                },
                {
                    "name": "id",
                    "type": "uint64",
                    "indexed": true,
                    "internalType": "uint64"
                },
                {
                    "name": "accept",
                    "type": "bool",
                    "indexed": false,
                    "internalType": "bool"
                },
                {
                    "name": "trustScore",
                    "type": "uint128",
                    "indexed": false,
                    "internalType": "uint128"
                }
            ],
            "anonymous": false
        },
        {
            "type": "error",
            "name": "TrustComputation__IdAlreadyProcessed",
            "inputs": [
                {
                    "name": "",
                    "type": "bytes32",
                    "internalType": "bytes32"
                },
                {
                    "name": "",
                    "type": "uint64",
                    "internalType": "uint64"
                }
            ]
        },
        {
            "type": "error",
            "name": "TrustComputation__InvalidData",
            "inputs": []
        },
        {
            "type": "error",
            "name": "TrustComputation__NoTrustPackage",
            "inputs": []
        }
    ],
    "bytecode": {
        "object": "0x608060405234801561000f575f5ffd5b5060405161125d38038061125d833981810160405281019061003191906100d4565b805f5f6101000a81548173ffffffffffffffffffffffffffffffffffffffff021916908373ffffffffffffffffffffffffffffffffffffffff160217905550506100ff565b5f5ffd5b5f73ffffffffffffffffffffffffffffffffffffffff82169050919050565b5f6100a38261007a565b9050919050565b6100b381610099565b81146100bd575f5ffd5b50565b5f815190506100ce816100aa565b92915050565b5f602082840312156100e9576100e8610076565b5b5f6100f6848285016100c0565b91505092915050565b6111518061010c5f395ff3fe608060405234801561000f575f5ffd5b506004361061004a575f3560e01c80639b0881d61461004e578063b3fbe4751461006a578063e606ea4014610088578063f79835c2146100ba575b5f5ffd5b6100686004803603810190610063919061094a565b6100ec565b005b610072610441565b60405161007f9190610a92565b60405180910390f35b6100a2600480360381019061009d9190610aab565b610468565b6040516100b193929190610ba3565b60405180910390f35b6100d460048036038101906100cf9190610c2d565b610531565b6040516100e393929190610e29565b60405180910390f35b5f5f5f9054906101000a900473ffffffffffffffffffffffffffffffffffffffff1673ffffffffffffffffffffffffffffffffffffffff16631ee9be7c86866040518363ffffffff1660e01b8152600401610148929190610ecc565b602060405180830381865afa158015610163573d5f5f3e3d5ffd5b505050506040513d601f19601f820116820180604052508101906101879190610f3c565b90505f73ffffffffffffffffffffffffffffffffffffffff168173ffffffffffffffffffffffffffffffffffffffff16036101ee576040517f5ad7e4d500000000000000000000000000000000000000000000000000000000815260040160405180910390fd5b5f60015f8981526020019081526020015f205f8867ffffffffffffffff1667ffffffffffffffff1681526020019081526020015f20600101541461026b5786866040517f568a5f91000000000000000000000000000000000000000000000000000000008152600401610262929190610f67565b60405180910390fd5b5f83839050036102a7576040517fb9b94a7300000000000000000000000000000000000000000000000000000000815260040160405180910390fd5b5f5f8273ffffffffffffffffffffffffffffffffffffffff1663e70f791886866040518363ffffffff1660e01b81526004016102e4929190610fca565b6040805180830381865afa1580156102fe573d5f5f3e3d5ffd5b505050506040513d601f19601f820116820180604052508101906103229190611040565b9150915060405180606001604052808315158152602001826fffffffffffffffffffffffffffffffff1681526020014281525060015f8b81526020019081526020015f205f8a67ffffffffffffffff1667ffffffffffffffff1681526020019081526020015f205f820151815f015f6101000a81548160ff0219169083151502179055506020820151815f0160016101000a8154816fffffffffffffffffffffffffffffffff02191690836fffffffffffffffffffffffffffffffff160217905550604082015181600101559050508767ffffffffffffffff16897f2f4ce5aeeb2608888988c366448791c5e5e260c422764137dccd59e411da875a848460405161042e92919061109c565b60405180910390a3505050505050505050565b5f5f5f9054906101000a900473ffffffffffffffffffffffffffffffffffffffff16905090565b5f5f6104726106fe565b5f60015f8781526020019081526020015f205f8667ffffffffffffffff1667ffffffffffffffff1681526020019081526020015f206040518060600160405290815f82015f9054906101000a900460ff161515151581526020015f820160019054906101000a90046fffffffffffffffffffffffffffffffff166fffffffffffffffffffffffffffffffff166fffffffffffffffffffffffffffffffff1681526020016001820154815250509050858582935093509350509250925092565b5f6060805f8585905090505f8167ffffffffffffffff811115610557576105566107c9565b5b60405190808252806020026020018201604052801561059057816020015b61057d6106fe565b8152602001906001900390816105755790505b5090505f5f90505b828110156106a2575f60015f8b81526020019081526020015f205f8a8a858181106105c6576105c56110c3565b5b90506020020160208101906105db91906110f0565b67ffffffffffffffff1667ffffffffffffffff1681526020019081526020015f206040518060600160405290815f82015f9054906101000a900460ff161515151581526020015f820160019054906101000a90046fffffffffffffffffffffffffffffffff166fffffffffffffffffffffffffffffffff166fffffffffffffffffffffffffffffffff168152602001600182015481525050905080838381518110610689576106886110c3565b5b6020026020010181905250508080600101915050610598565b888888848282808060200260200160405190810160405280939291908181526020018383602002808284375f81840152601f19601f82011690508083019250505050505050915090915095509550955050505093509350939050565b60405180606001604052805f151581526020015f6fffffffffffffffffffffffffffffffff1681526020015f81525090565b5f604051905090565b5f5ffd5b5f5ffd5b5f819050919050565b61075381610741565b811461075d575f5ffd5b50565b5f8135905061076e8161074a565b92915050565b5f67ffffffffffffffff82169050919050565b61079081610774565b811461079a575f5ffd5b50565b5f813590506107ab81610787565b92915050565b5f5ffd5b5f5ffd5b5f601f19601f8301169050919050565b7f4e487b71000000000000000000000000000000000000000000000000000000005f52604160045260245ffd5b6107ff826107b9565b810181811067ffffffffffffffff8211171561081e5761081d6107c9565b5b80604052505050565b5f610830610730565b905061083c82826107f6565b919050565b5f67ffffffffffffffff82111561085b5761085a6107c9565b5b610864826107b9565b9050602081019050919050565b828183375f83830152505050565b5f61089161088c84610841565b610827565b9050828152602081018484840111156108ad576108ac6107b5565b5b6108b8848285610871565b509392505050565b5f82601f8301126108d4576108d36107b1565b5b81356108e484826020860161087f565b91505092915050565b5f5ffd5b5f5ffd5b5f5f83601f84011261090a576109096107b1565b5b8235905067ffffffffffffffff811115610927576109266108ed565b5b602083019150836001820283011115610943576109426108f1565b5b9250929050565b5f5f5f5f5f5f60a0878903121561096457610963610739565b5b5f61097189828a01610760565b965050602061098289828a0161079d565b955050604087013567ffffffffffffffff8111156109a3576109a261073d565b5b6109af89828a016108c0565b945050606087013567ffffffffffffffff8111156109d0576109cf61073d565b5b6109dc89828a016108c0565b935050608087013567ffffffffffffffff8111156109fd576109fc61073d565b5b610a0989828a016108f5565b92509250509295509295509295565b5f73ffffffffffffffffffffffffffffffffffffffff82169050919050565b5f819050919050565b5f610a5a610a55610a5084610a18565b610a37565b610a18565b9050919050565b5f610a6b82610a40565b9050919050565b5f610a7c82610a61565b9050919050565b610a8c81610a72565b82525050565b5f602082019050610aa55f830184610a83565b92915050565b5f5f60408385031215610ac157610ac0610739565b5b5f610ace85828601610760565b9250506020610adf8582860161079d565b9150509250929050565b610af281610741565b82525050565b610b0181610774565b82525050565b5f8115159050919050565b610b1b81610b07565b82525050565b5f6fffffffffffffffffffffffffffffffff82169050919050565b610b4581610b21565b82525050565b5f819050919050565b610b5d81610b4b565b82525050565b606082015f820151610b775f850182610b12565b506020820151610b8a6020850182610b3c565b506040820151610b9d6040850182610b54565b50505050565b5f60a082019050610bb65f830186610ae9565b610bc36020830185610af8565b610bd06040830184610b63565b949350505050565b5f5f83601f840112610bed57610bec6107b1565b5b8235905067ffffffffffffffff811115610c0a57610c096108ed565b5b602083019150836020820283011115610c2657610c256108f1565b5b9250929050565b5f5f5f60408486031215610c4457610c43610739565b5b5f610c5186828701610760565b935050602084013567ffffffffffffffff811115610c7257610c7161073d565b5b610c7e86828701610bd8565b92509250509250925092565b5f81519050919050565b5f82825260208201905092915050565b5f819050602082019050919050565b610cbc81610774565b82525050565b5f610ccd8383610cb3565b60208301905092915050565b5f602082019050919050565b5f610cef82610c8a565b610cf98185610c94565b9350610d0483610ca4565b805f5b83811015610d34578151610d1b8882610cc2565b9750610d2683610cd9565b925050600181019050610d07565b5085935050505092915050565b5f81519050919050565b5f82825260208201905092915050565b5f819050602082019050919050565b606082015f820151610d7e5f850182610b12565b506020820151610d916020850182610b3c565b506040820151610da46040850182610b54565b50505050565b5f610db58383610d6a565b60608301905092915050565b5f602082019050919050565b5f610dd782610d41565b610de18185610d4b565b9350610dec83610d5b565b805f5b83811015610e1c578151610e038882610daa565b9750610e0e83610dc1565b925050600181019050610def565b5085935050505092915050565b5f606082019050610e3c5f830186610ae9565b8181036020830152610e4e8185610ce5565b90508181036040830152610e628184610dcd565b9050949350505050565b5f81519050919050565b5f82825260208201905092915050565b8281835e5f83830152505050565b5f610e9e82610e6c565b610ea88185610e76565b9350610eb8818560208601610e86565b610ec1816107b9565b840191505092915050565b5f6040820190508181035f830152610ee48185610e94565b90508181036020830152610ef88184610e94565b90509392505050565b5f610f0b82610a18565b9050919050565b610f1b81610f01565b8114610f25575f5ffd5b50565b5f81519050610f3681610f12565b92915050565b5f60208284031215610f5157610f50610739565b5b5f610f5e84828501610f28565b91505092915050565b5f604082019050610f7a5f830185610ae9565b610f876020830184610af8565b9392505050565b5f82825260208201905092915050565b5f610fa98385610f8e565b9350610fb6838584610871565b610fbf836107b9565b840190509392505050565b5f6020820190508181035f830152610fe3818486610f9e565b90509392505050565b610ff581610b07565b8114610fff575f5ffd5b50565b5f8151905061101081610fec565b92915050565b61101f81610b21565b8114611029575f5ffd5b50565b5f8151905061103a81611016565b92915050565b5f5f6040838503121561105657611055610739565b5b5f61106385828601611002565b92505060206110748582860161102c565b9150509250929050565b61108781610b07565b82525050565b61109681610b21565b82525050565b5f6040820190506110af5f83018561107e565b6110bc602083018461108d565b9392505050565b7f4e487b71000000000000000000000000000000000000000000000000000000005f52603260045260245ffd5b5f6020828403121561110557611104610739565b5b5f6111128482850161079d565b9150509291505056fea264697066735822122002c1161205415d3ad1c16e004f9a133e72216535da222c4b0f6bfb2fdd0d7e8564736f6c634300081e0033",
        "linkReferences": {}
    },
    "methodIdentifiers": {
        "getMetricSelection()": "b3fbe475",
        "getTrustRecord(bytes32,uint64)": "e606ea40",
        "getTrustRecords(bytes32,uint64[])": "f79835c2",
        "processData(bytes32,uint64,string,string,bytes)": "9b0881d6"
    },
    "id": 17
}