{
    "abi": [
        {
            "type": "function",
            "name": "addLog",
            "inputs": [
                {
                    "name": "seasonStepId",
                    "type": "uint64",
                    "internalType": "uint64"
                },
                {
                    "name": "logId",
                    "type": "uint64",
                    "internalType": "uint64"
                },
                {
                    "name": "hashedData",
                    "type": "string",
                    "internalType": "string"
                }
            ],
            "outputs": [],
            "stateMutability": "nonpayable"
        },
        {
            "type": "function",
            "name": "addStep",
            "inputs": [
                {
                    "name": "seasonId",
                    "type": "uint64",
                    "internalType": "uint64"
                },
                {
                    "name": "seasonStepId",
                    "type": "uint64",
                    "internalType": "uint64"
                },
                {
                    "name": "hashedData",
                    "type": "string",
                    "internalType": "string"
                }
            ],
            "outputs": [],
            "stateMutability": "nonpayable"
        },
        {
            "type": "function",
            "name": "getLog",
            "inputs": [
                {
                    "name": "logId",
                    "type": "uint64",
                    "internalType": "uint64"
                }
            ],
            "outputs": [
                {
                    "name": "",
                    "type": "string",
                    "internalType": "string"
                }
            ],
            "stateMutability": "view"
        },
        {
            "type": "function",
            "name": "getLogs",
            "inputs": [
                {
                    "name": "seasonStepId",
                    "type": "uint64",
                    "internalType": "uint64"
                }
            ],
            "outputs": [
                {
                    "name": "",
                    "type": "uint64[]",
                    "internalType": "uint64[]"
                },
                {
                    "name": "",
                    "type": "string[]",
                    "internalType": "string[]"
                }
            ],
            "stateMutability": "view"
        },
        {
            "type": "function",
            "name": "getStep",
            "inputs": [
                {
                    "name": "seasonStepId",
                    "type": "uint64",
                    "internalType": "uint64"
                }
            ],
            "outputs": [
                {
                    "name": "",
                    "type": "string",
                    "internalType": "string"
                }
            ],
            "stateMutability": "view"
        },
        {
            "type": "function",
            "name": "getSteps",
            "inputs": [
                {
                    "name": "seasonId",
                    "type": "uint64",
                    "internalType": "uint64"
                }
            ],
            "outputs": [
                {
                    "name": "",
                    "type": "uint64[]",
                    "internalType": "uint64[]"
                },
                {
                    "name": "",
                    "type": "string[]",
                    "internalType": "string[]"
                }
            ],
            "stateMutability": "view"
        },
        {
            "type": "event",
            "name": "LogAdded",
            "inputs": [
                {
                    "name": "logId",
                    "type": "uint64",
                    "indexed": false,
                    "internalType": "uint64"
                },
                {
                    "name": "hashedData",
                    "type": "string",
                    "indexed": false,
                    "internalType": "string"
                }
            ],
            "anonymous": false
        },
        {
            "type": "event",
            "name": "StepAdded",
            "inputs": [
                {
                    "name": "seasonId",
                    "type": "uint64",
                    "indexed": false,
                    "internalType": "uint64"
                },
                {
                    "name": "seasonStepId",
                    "type": "uint64",
                    "indexed": false,
                    "internalType": "uint64"
                },
                {
                    "name": "hashedData",
                    "type": "string",
                    "indexed": false,
                    "internalType": "string"
                }
            ],
            "anonymous": false
        },
        {
            "type": "error",
            "name": "ProcessTracking__InvalidLogId",
            "inputs": []
        },
        {
            "type": "error",
            "name": "ProcessTracking__InvalidStepId",
            "inputs": []
        }
    ],
    "bytecode": {
        "object": "0x6080604052348015600e575f5ffd5b506112568061001c5f395ff3fe608060405234801561000f575f5ffd5b5060043610610060575f3560e01c806327d39e051461006457806335295464146100945780635be800b1146100c55780637ff351fc146100e1578063ec8c2f1314610112578063fcabfe2414610142575b5f5ffd5b61007e600480360381019061007991906109fc565b61015e565b60405161008b9190610a97565b60405180910390f35b6100ae60048036038101906100a991906109fc565b610212565b6040516100bc929190610c71565b60405180910390f35b6100df60048036038101906100da9190610dd2565b610433565b005b6100fb60048036038101906100f691906109fc565b610583565b604051610109929190610c71565b60405180910390f35b61012c600480360381019061012791906109fc565b6107a5565b6040516101399190610a97565b60405180910390f35b61015c60048036038101906101579190610dd2565b61085a565b005b60605f5f8367ffffffffffffffff1667ffffffffffffffff1681526020019081526020015f20805461018f90610e6b565b80601f01602080910402602001604051908101604052809291908181526020018280546101bb90610e6b565b80156102065780601f106101dd57610100808354040283529160200191610206565b820191905f5260205f20905b8154815290600101906020018083116101e957829003601f168201915b50505050509050919050565b6060805f60015f8567ffffffffffffffff1667ffffffffffffffff1681526020019081526020015f208054806020026020016040519081016040528092919081815260200182805480156102b657602002820191905f5260205f20905f905b82829054906101000a900467ffffffffffffffff1667ffffffffffffffff16815260200190600801906020826007010492830192600103820291508084116102715790505b505050505090505f815167ffffffffffffffff8111156102d9576102d8610cae565b5b60405190808252806020026020018201604052801561030c57816020015b60608152602001906001900390816102f75790505b5090505f5f90505b82518163ffffffff161015610425575f5f848363ffffffff168151811061033e5761033d610e9b565b5b602002602001015167ffffffffffffffff1667ffffffffffffffff1681526020019081526020015f20805461037290610e6b565b80601f016020809104026020016040519081016040528092919081815260200182805461039e90610e6b565b80156103e95780601f106103c0576101008083540402835291602001916103e9565b820191905f5260205f20905b8154815290600101906020018083116103cc57829003601f168201915b5050505050828263ffffffff168151811061040757610406610e9b565b5b6020026020010181905250808061041d90610f04565b915050610314565b828294509450505050915091565b5f5f5f8467ffffffffffffffff1667ffffffffffffffff1681526020019081526020015f20805461046390610e6b565b90501461049c576040517f2f4bc45900000000000000000000000000000000000000000000000000000000815260040160405180910390fd5b805f5f8467ffffffffffffffff1667ffffffffffffffff1681526020019081526020015f2090816104cd91906110d8565b5060015f8467ffffffffffffffff1667ffffffffffffffff1681526020019081526020015f2082908060018154018082558091505060019003905f5260205f2090600491828204019190066008029091909190916101000a81548167ffffffffffffffff021916908367ffffffffffffffff1602179055507f43ce8f232bb7fb5fc53c041f1c45ef6c16d7c3f7ab22cec73a50f69fdc421e3882826040516105769291906111b6565b60405180910390a1505050565b6060805f60035f8567ffffffffffffffff1667ffffffffffffffff1681526020019081526020015f2080548060200260200160405190810160405280929190818152602001828054801561062757602002820191905f5260205f20905f905b82829054906101000a900467ffffffffffffffff1667ffffffffffffffff16815260200190600801906020826007010492830192600103820291508084116105e25790505b505050505090505f815167ffffffffffffffff81111561064a57610649610cae565b5b60405190808252806020026020018201604052801561067d57816020015b60608152602001906001900390816106685790505b5090505f5f90505b82518163ffffffff1610156107975760025f848363ffffffff16815181106106b0576106af610e9b565b5b602002602001015167ffffffffffffffff1667ffffffffffffffff1681526020019081526020015f2080546106e490610e6b565b80601f016020809104026020016040519081016040528092919081815260200182805461071090610e6b565b801561075b5780601f106107325761010080835404028352916020019161075b565b820191905f5260205f20905b81548152906001019060200180831161073e57829003601f168201915b5050505050828263ffffffff168151811061077957610778610e9b565b5b6020026020010181905250808061078f90610f04565b915050610685565b828294509450505050915091565b606060025f8367ffffffffffffffff1667ffffffffffffffff1681526020019081526020015f2080546107d790610e6b565b80601f016020809104026020016040519081016040528092919081815260200182805461080390610e6b565b801561084e5780601f106108255761010080835404028352916020019161084e565b820191905f5260205f20905b81548152906001019060200180831161083157829003601f168201915b50505050509050919050565b5f60025f8467ffffffffffffffff1667ffffffffffffffff1681526020019081526020015f20805461088b90610e6b565b9050146108c4576040517f8ee432a800000000000000000000000000000000000000000000000000000000815260040160405180910390fd5b8060025f8467ffffffffffffffff1667ffffffffffffffff1681526020019081526020015f2090816108f691906110d8565b5060035f8467ffffffffffffffff1667ffffffffffffffff1681526020019081526020015f2082908060018154018082558091505060019003905f5260205f2090600491828204019190066008029091909190916101000a81548167ffffffffffffffff021916908367ffffffffffffffff1602179055507f5e46e01b5d5c245b823746555af0820246e0c5eeb24dcc1fae750cffb8741fe08383836040516109a1939291906111e4565b60405180910390a1505050565b5f604051905090565b5f5ffd5b5f5ffd5b5f67ffffffffffffffff82169050919050565b6109db816109bf565b81146109e5575f5ffd5b50565b5f813590506109f6816109d2565b92915050565b5f60208284031215610a1157610a106109b7565b5b5f610a1e848285016109e8565b91505092915050565b5f81519050919050565b5f82825260208201905092915050565b8281835e5f83830152505050565b5f601f19601f8301169050919050565b5f610a6982610a27565b610a738185610a31565b9350610a83818560208601610a41565b610a8c81610a4f565b840191505092915050565b5f6020820190508181035f830152610aaf8184610a5f565b905092915050565b5f81519050919050565b5f82825260208201905092915050565b5f819050602082019050919050565b610ae9816109bf565b82525050565b5f610afa8383610ae0565b60208301905092915050565b5f602082019050919050565b5f610b1c82610ab7565b610b268185610ac1565b9350610b3183610ad1565b805f5b83811015610b61578151610b488882610aef565b9750610b5383610b06565b925050600181019050610b34565b5085935050505092915050565b5f81519050919050565b5f82825260208201905092915050565b5f819050602082019050919050565b5f82825260208201905092915050565b5f610bb182610a27565b610bbb8185610b97565b9350610bcb818560208601610a41565b610bd481610a4f565b840191505092915050565b5f610bea8383610ba7565b905092915050565b5f602082019050919050565b5f610c0882610b6e565b610c128185610b78565b935083602082028501610c2485610b88565b805f5b85811015610c5f5784840389528151610c408582610bdf565b9450610c4b83610bf2565b925060208a01995050600181019050610c27565b50829750879550505050505092915050565b5f6040820190508181035f830152610c898185610b12565b90508181036020830152610c9d8184610bfe565b90509392505050565b5f5ffd5b5f5ffd5b7f4e487b71000000000000000000000000000000000000000000000000000000005f52604160045260245ffd5b610ce482610a4f565b810181811067ffffffffffffffff82111715610d0357610d02610cae565b5b80604052505050565b5f610d156109ae565b9050610d218282610cdb565b919050565b5f67ffffffffffffffff821115610d4057610d3f610cae565b5b610d4982610a4f565b9050602081019050919050565b828183375f83830152505050565b5f610d76610d7184610d26565b610d0c565b905082815260208101848484011115610d9257610d91610caa565b5b610d9d848285610d56565b509392505050565b5f82601f830112610db957610db8610ca6565b5b8135610dc9848260208601610d64565b91505092915050565b5f5f5f60608486031215610de957610de86109b7565b5b5f610df6868287016109e8565b9350506020610e07868287016109e8565b925050604084013567ffffffffffffffff811115610e2857610e276109bb565b5b610e3486828701610da5565b9150509250925092565b7f4e487b71000000000000000000000000000000000000000000000000000000005f52602260045260245ffd5b5f6002820490506001821680610e8257607f821691505b602082108103610e9557610e94610e3e565b5b50919050565b7f4e487b71000000000000000000000000000000000000000000000000000000005f52603260045260245ffd5b7f4e487b71000000000000000000000000000000000000000000000000000000005f52601160045260245ffd5b5f63ffffffff82169050919050565b5f610f0e82610ef5565b915063ffffffff8203610f2457610f23610ec8565b5b600182019050919050565b5f819050815f5260205f209050919050565b5f6020601f8301049050919050565b5f82821b905092915050565b5f60088302610f8b7fffffffffffffffffffffffffffffffffffffffffffffffffffffffffffffffff82610f50565b610f958683610f50565b95508019841693508086168417925050509392505050565b5f819050919050565b5f819050919050565b5f610fd9610fd4610fcf84610fad565b610fb6565b610fad565b9050919050565b5f819050919050565b610ff283610fbf565b611006610ffe82610fe0565b848454610f5c565b825550505050565b5f5f905090565b61101d61100e565b611028818484610fe9565b505050565b5b8181101561104b576110405f82611015565b60018101905061102e565b5050565b601f8211156110905761106181610f2f565b61106a84610f41565b81016020851015611079578190505b61108d61108585610f41565b83018261102d565b50505b505050565b5f82821c905092915050565b5f6110b05f1984600802611095565b1980831691505092915050565b5f6110c883836110a1565b9150826002028217905092915050565b6110e182610a27565b67ffffffffffffffff8111156110fa576110f9610cae565b5b6111048254610e6b565b61110f82828561104f565b5f60209050601f831160018114611140575f841561112e578287015190505b61113885826110bd565b86555061119f565b601f19841661114e86610f2f565b5f5b8281101561117557848901518255600182019150602085019450602081019050611150565b86831015611192578489015161118e601f8916826110a1565b8355505b6001600288020188555050505b505050505050565b6111b0816109bf565b82525050565b5f6040820190506111c95f8301856111a7565b81810360208301526111db8184610a5f565b90509392505050565b5f6060820190506111f75f8301866111a7565b61120460208301856111a7565b81810360408301526112168184610a5f565b905094935050505056fea2646970667358221220e9b436de07a582622413de185d290328bdacb1f0f93b28965c58be3ae6b320c764736f6c634300081e0033",
        "linkReferences": {}
    },
    "methodIdentifiers": {
        "addLog(uint64,uint64,string)": "5be800b1",
        "addStep(uint64,uint64,string)": "fcabfe24",
        "getLog(uint64)": "27d39e05",
        "getLogs(uint64)": "35295464",
        "getStep(uint64)": "ec8c2f13",
        "getSteps(uint64)": "7ff351fc"
    },
    "id": 16
}