{
    "abi": [
        {
            "type": "constructor",
            "inputs": [
                {
                    "name": "metricSelectionAddress",
                    "type": "address",
                    "internalType": "address"
                }
            ],
            "stateMutability": "nonpayable"
        },
        {
            "type": "function",
            "name": "getMetricSelection",
            "inputs": [],
            "outputs": [
                {
                    "name": "",
                    "type": "address",
                    "internalType": "contract MetricSelection"
                }
            ],
            "stateMutability": "view"
        },
        {
            "type": "function",
            "name": "getTrustRecord",
            "inputs": [
                {
                    "name": "logId",
                    "type": "uint64",
                    "internalType": "uint64"
                }
            ],
            "outputs": [
                {
                    "name": "trustScore",
                    "type": "uint256",
                    "internalType": "uint256"
                },
                {
                    "name": "timestamp",
                    "type": "uint256",
                    "internalType": "uint256"
                }
            ],
            "stateMutability": "view"
        },
        {
            "type": "function",
            "name": "getTrustRecords",
            "inputs": [
                {
                    "name": "logIds",
                    "type": "uint64[]",
                    "internalType": "uint64[]"
                }
            ],
            "outputs": [
                {
                    "name": "",
                    "type": "uint256[]",
                    "internalType": "uint256[]"
                },
                {
                    "name": "",
                    "type": "uint256[]",
                    "internalType": "uint256[]"
                }
            ],
            "stateMutability": "view"
        },
        {
            "type": "function",
            "name": "processData",
            "inputs": [
                {
                    "name": "logId",
                    "type": "uint64",
                    "internalType": "uint64"
                },
                {
                    "name": "dataType",
                    "type": "string",
                    "internalType": "string"
                },
                {
                    "name": "context",
                    "type": "string",
                    "internalType": "string"
                },
                {
                    "name": "data",
                    "type": "bytes",
                    "internalType": "bytes"
                }
            ],
            "outputs": [],
            "stateMutability": "nonpayable"
        },
        {
            "type": "event",
            "name": "TrustProcessed",
            "inputs": [
                {
                    "name": "logId",
                    "type": "uint64",
                    "indexed": true,
                    "internalType": "uint64"
                },
                {
                    "name": "trustScore",
                    "type": "uint256",
                    "indexed": false,
                    "internalType": "uint256"
                }
            ],
            "anonymous": false
        },
        {
            "type": "error",
            "name": "TrustComputation__IdAlreadyProcessed",
            "inputs": []
        },
        {
            "type": "error",
            "name": "TrustComputation__InvalidData",
            "inputs": []
        },
        {
            "type": "error",
            "name": "TrustComputation__NoTrustPackage",
            "inputs": []
        }
    ],
    "bytecode": {
        "object": "0x608060405234801561000f575f5ffd5b50604051610eff380380610eff833981810160405281019061003191906100d4565b805f5f6101000a81548173ffffffffffffffffffffffffffffffffffffffff021916908373ffffffffffffffffffffffffffffffffffffffff160217905550506100ff565b5f5ffd5b5f73ffffffffffffffffffffffffffffffffffffffff82169050919050565b5f6100a38261007a565b9050919050565b6100b381610099565b81146100bd575f5ffd5b50565b5f815190506100ce816100aa565b92915050565b5f602082840312156100e9576100e8610076565b5b5f6100f6848285016100c0565b91505092915050565b610df38061010c5f395ff3fe608060405234801561000f575f5ffd5b506004361061004a575f3560e01c80637c1ccc0a1461004e578063b3fbe4751461007f578063d12afaed1461009d578063e2f69cbe146100ce575b5f5ffd5b6100686004803603810190610063919061076d565b6100ea565b604051610076929190610874565b60405180910390f35b610087610297565b6040516100949190610923565b60405180910390f35b6100b760048036038101906100b2919061093c565b6102be565b6040516100c5929190610976565b60405180910390f35b6100e860048036038101906100e39190610aa6565b610319565b005b6060805f835167ffffffffffffffff811115610109576101086105f4565b5b6040519080825280602002602001820160405280156101375781602001602082028036833780820191505090505b5090505f845167ffffffffffffffff811115610156576101556105f4565b5b6040519080825280602002602001820160405280156101845781602001602082028036833780820191505090505b5090505f5f90505b85518163ffffffff1610156102895760015f878363ffffffff16815181106101b7576101b6610b62565b5b602002602001015167ffffffffffffffff1667ffffffffffffffff1681526020019081526020015f205f0154838263ffffffff16815181106101fc576101fb610b62565b5b60200260200101818152505060015f878363ffffffff168151811061022457610223610b62565b5b602002602001015167ffffffffffffffff1667ffffffffffffffff1681526020019081526020015f2060010154828263ffffffff168151811061026a57610269610b62565b5b602002602001018181525050808061028190610bcb565b91505061018c565b828294509450505050915091565b5f5f5f9054906101000a900473ffffffffffffffffffffffffffffffffffffffff16905090565b5f5f5f60015f8567ffffffffffffffff1667ffffffffffffffff1681526020019081526020015f206040518060400160405290815f82015481526020016001820154815250509050805f015181602001519250925050915091565b5f5f5f9054906101000a900473ffffffffffffffffffffffffffffffffffffffff1673ffffffffffffffffffffffffffffffffffffffff16631ee9be7c86866040518363ffffffff1660e01b8152600401610375929190610c56565b602060405180830381865afa158015610390573d5f5f3e3d5ffd5b505050506040513d601f19601f820116820180604052508101906103b49190610cc6565b90505f73ffffffffffffffffffffffffffffffffffffffff168173ffffffffffffffffffffffffffffffffffffffff160361041b576040517f5ad7e4d500000000000000000000000000000000000000000000000000000000815260040160405180910390fd5b5f60015f8867ffffffffffffffff1667ffffffffffffffff1681526020019081526020015f20600101541461047c576040517f69b8db1b00000000000000000000000000000000000000000000000000000000815260040160405180910390fd5b5f83839050036104b8576040517fb9b94a7300000000000000000000000000000000000000000000000000000000815260040160405180910390fd5b5f8173ffffffffffffffffffffffffffffffffffffffff1663e70f791885856040518363ffffffff1660e01b81526004016104f4929190610d2d565b602060405180830381865afa15801561050f573d5f5f3e3d5ffd5b505050506040513d601f19601f820116820180604052508101906105339190610d79565b905060405180604001604052808281526020014281525060015f8967ffffffffffffffff1667ffffffffffffffff1681526020019081526020015f205f820151815f0155602082015181600101559050508667ffffffffffffffff167f54a45d51bfbd0ba70296bf35ed5d2765aa15d34787543a976555a8072304e2f8826040516105be9190610da4565b60405180910390a250505050505050565b5f604051905090565b5f5ffd5b5f5ffd5b5f5ffd5b5f601f19601f8301169050919050565b7f4e487b71000000000000000000000000000000000000000000000000000000005f52604160045260245ffd5b61062a826105e4565b810181811067ffffffffffffffff82111715610649576106486105f4565b5b80604052505050565b5f61065b6105cf565b90506106678282610621565b919050565b5f67ffffffffffffffff821115610686576106856105f4565b5b602082029050602081019050919050565b5f5ffd5b5f67ffffffffffffffff82169050919050565b6106b78161069b565b81146106c1575f5ffd5b50565b5f813590506106d2816106ae565b92915050565b5f6106ea6106e58461066c565b610652565b9050808382526020820190506020840283018581111561070d5761070c610697565b5b835b81811015610736578061072288826106c4565b84526020840193505060208101905061070f565b5050509392505050565b5f82601f830112610754576107536105e0565b5b81356107648482602086016106d8565b91505092915050565b5f60208284031215610782576107816105d8565b5b5f82013567ffffffffffffffff81111561079f5761079e6105dc565b5b6107ab84828501610740565b91505092915050565b5f81519050919050565b5f82825260208201905092915050565b5f819050602082019050919050565b5f819050919050565b6107ef816107dd565b82525050565b5f61080083836107e6565b60208301905092915050565b5f602082019050919050565b5f610822826107b4565b61082c81856107be565b9350610837836107ce565b805f5b8381101561086757815161084e88826107f5565b97506108598361080c565b92505060018101905061083a565b5085935050505092915050565b5f6040820190508181035f83015261088c8185610818565b905081810360208301526108a08184610818565b90509392505050565b5f73ffffffffffffffffffffffffffffffffffffffff82169050919050565b5f819050919050565b5f6108eb6108e66108e1846108a9565b6108c8565b6108a9565b9050919050565b5f6108fc826108d1565b9050919050565b5f61090d826108f2565b9050919050565b61091d81610903565b82525050565b5f6020820190506109365f830184610914565b92915050565b5f60208284031215610951576109506105d8565b5b5f61095e848285016106c4565b91505092915050565b610970816107dd565b82525050565b5f6040820190506109895f830185610967565b6109966020830184610967565b9392505050565b5f5ffd5b5f67ffffffffffffffff8211156109bb576109ba6105f4565b5b6109c4826105e4565b9050602081019050919050565b828183375f83830152505050565b5f6109f16109ec846109a1565b610652565b905082815260208101848484011115610a0d57610a0c61099d565b5b610a188482856109d1565b509392505050565b5f82601f830112610a3457610a336105e0565b5b8135610a448482602086016109df565b91505092915050565b5f5ffd5b5f5f83601f840112610a6657610a656105e0565b5b8235905067ffffffffffffffff811115610a8357610a82610a4d565b5b602083019150836001820283011115610a9f57610a9e610697565b5b9250929050565b5f5f5f5f5f60808688031215610abf57610abe6105d8565b5b5f610acc888289016106c4565b955050602086013567ffffffffffffffff811115610aed57610aec6105dc565b5b610af988828901610a20565b945050604086013567ffffffffffffffff811115610b1a57610b196105dc565b5b610b2688828901610a20565b935050606086013567ffffffffffffffff811115610b4757610b466105dc565b5b610b5388828901610a51565b92509250509295509295909350565b7f4e487b71000000000000000000000000000000000000000000000000000000005f52603260045260245ffd5b7f4e487b71000000000000000000000000000000000000000000000000000000005f52601160045260245ffd5b5f63ffffffff82169050919050565b5f610bd582610bbc565b915063ffffffff8203610beb57610bea610b8f565b5b600182019050919050565b5f81519050919050565b5f82825260208201905092915050565b8281835e5f83830152505050565b5f610c2882610bf6565b610c328185610c00565b9350610c42818560208601610c10565b610c4b816105e4565b840191505092915050565b5f6040820190508181035f830152610c6e8185610c1e565b90508181036020830152610c828184610c1e565b90509392505050565b5f610c95826108a9565b9050919050565b610ca581610c8b565b8114610caf575f5ffd5b50565b5f81519050610cc081610c9c565b92915050565b5f60208284031215610cdb57610cda6105d8565b5b5f610ce884828501610cb2565b91505092915050565b5f82825260208201905092915050565b5f610d0c8385610cf1565b9350610d198385846109d1565b610d22836105e4565b840190509392505050565b5f6020820190508181035f830152610d46818486610d01565b90509392505050565b610d58816107dd565b8114610d62575f5ffd5b50565b5f81519050610d7381610d4f565b92915050565b5f60208284031215610d8e57610d8d6105d8565b5b5f610d9b84828501610d65565b91505092915050565b5f602082019050610db75f830184610967565b9291505056fea26469706673582212208cd0f10855a864053ba1a07180fb719a95b09d2ecce879bbbb252feaabe2346464736f6c634300081e0033",
        "linkReferences": {}
    },
    "methodIdentifiers": {
        "getMetricSelection()": "b3fbe475",
        "getTrustRecord(uint64)": "d12afaed",
        "getTrustRecords(uint64[])": "7c1ccc0a",
        "processData(uint64,string,string,bytes)": "e2f69cbe"
    },
    "id": 22
}