{
    "abi": [
        {
            "type": "constructor",
            "inputs": [
                {
                    "name": "metricSelectionAddress",
                    "type": "address",
                    "internalType": "address"
                }
            ],
            "stateMutability": "nonpayable"
        },
        {
            "type": "function",
            "name": "getMetricSelection",
            "inputs": [],
            "outputs": [
                {
                    "name": "",
                    "type": "address",
                    "internalType": "contract MetricSelection"
                }
            ],
            "stateMutability": "view"
        },
        {
            "type": "function",
            "name": "getTrustRecord",
            "inputs": [
                {
                    "name": "identifier",
                    "type": "bytes32",
                    "internalType": "bytes32"
                },
                {
                    "name": "id",
                    "type": "uint64",
                    "internalType": "uint64"
                }
            ],
            "outputs": [
                {
                    "name": "",
                    "type": "bytes32",
                    "internalType": "bytes32"
                },
                {
                    "name": "",
                    "type": "uint64",
                    "internalType": "uint64"
                },
                {
                    "name": "trustScore",
                    "type": "uint128",
                    "internalType": "uint128"
                },
                {
                    "name": "timestamp",
                    "type": "uint256",
                    "internalType": "uint256"
                }
            ],
            "stateMutability": "view"
        },
        {
            "type": "function",
            "name": "getTrustRecords",
            "inputs": [
                {
                    "name": "identifier",
                    "type": "bytes32",
                    "internalType": "bytes32"
                },
                {
                    "name": "ids",
                    "type": "uint64[]",
                    "internalType": "uint64[]"
                }
            ],
            "outputs": [
                {
                    "name": "trustScores",
                    "type": "uint128[]",
                    "internalType": "uint128[]"
                },
                {
                    "name": "timestamps",
                    "type": "uint256[]",
                    "internalType": "uint256[]"
                }
            ],
            "stateMutability": "view"
        },
        {
            "type": "function",
            "name": "processData",
            "inputs": [
                {
                    "name": "identifier",
                    "type": "bytes32",
                    "internalType": "bytes32"
                },
                {
                    "name": "id",
                    "type": "uint64",
                    "internalType": "uint64"
                },
                {
                    "name": "dataType",
                    "type": "string",
                    "internalType": "string"
                },
                {
                    "name": "context",
                    "type": "string",
                    "internalType": "string"
                },
                {
                    "name": "data",
                    "type": "bytes",
                    "internalType": "bytes"
                }
            ],
            "outputs": [],
            "stateMutability": "nonpayable"
        },
        {
            "type": "event",
            "name": "TrustProcessed",
            "inputs": [
                {
                    "name": "identifier",
                    "type": "bytes32",
                    "indexed": true,
                    "internalType": "bytes32"
                },
                {
                    "name": "id",
                    "type": "uint64",
                    "indexed": true,
                    "internalType": "uint64"
                },
                {
                    "name": "trustScore",
                    "type": "uint128",
                    "indexed": false,
                    "internalType": "uint128"
                }
            ],
            "anonymous": false
        },
        {
            "type": "error",
            "name": "TrustComputation__IdAlreadyProcessed",
            "inputs": []
        },
        {
            "type": "error",
            "name": "TrustComputation__InvalidData",
            "inputs": []
        },
        {
            "type": "error",
            "name": "TrustComputation__NoTrustPackage",
            "inputs": []
        }
    ],
    "bytecode": {
        "object": "0x608060405234801561000f575f5ffd5b506040516110e33803806110e3833981810160405281019061003191906100d4565b805f5f6101000a81548173ffffffffffffffffffffffffffffffffffffffff021916908373ffffffffffffffffffffffffffffffffffffffff160217905550506100ff565b5f5ffd5b5f73ffffffffffffffffffffffffffffffffffffffff82169050919050565b5f6100a38261007a565b9050919050565b6100b381610099565b81146100bd575f5ffd5b50565b5f815190506100ce816100aa565b92915050565b5f602082840312156100e9576100e8610076565b5b5f6100f6848285016100c0565b91505092915050565b610fd78061010c5f395ff3fe608060405234801561000f575f5ffd5b506004361061004a575f3560e01c80639b0881d61461004e578063b3fbe4751461006a578063e606ea4014610088578063f79835c2146100bb575b5f5ffd5b610068600480360381019061006391906108eb565b6100ec565b005b610072610408565b60405161007f9190610a33565b60405180910390f35b6100a2600480360381019061009d9190610a4c565b61042f565b6040516100b29493929190610aea565b60405180910390f35b6100d560048036038101906100d09190610b82565b6104e4565b6040516100e3929190610d4d565b60405180910390f35b5f5f5f9054906101000a900473ffffffffffffffffffffffffffffffffffffffff1673ffffffffffffffffffffffffffffffffffffffff16631ee9be7c86866040518363ffffffff1660e01b8152600401610148929190610de2565b602060405180830381865afa158015610163573d5f5f3e3d5ffd5b505050506040513d601f19601f820116820180604052508101906101879190610e52565b90505f73ffffffffffffffffffffffffffffffffffffffff168173ffffffffffffffffffffffffffffffffffffffff16036101ee576040517f5ad7e4d500000000000000000000000000000000000000000000000000000000815260040160405180910390fd5b5f60015f8981526020019081526020015f205f8867ffffffffffffffff1667ffffffffffffffff1681526020019081526020015f20600101541461025e576040517f69b8db1b00000000000000000000000000000000000000000000000000000000815260040160405180910390fd5b5f838390500361029a576040517fb9b94a7300000000000000000000000000000000000000000000000000000000815260040160405180910390fd5b5f8173ffffffffffffffffffffffffffffffffffffffff1663e70f791885856040518363ffffffff1660e01b81526004016102d6929190610eb9565b602060405180830381865afa1580156102f1573d5f5f3e3d5ffd5b505050506040513d601f19601f820116820180604052508101906103159190610f05565b90506040518060400160405280826fffffffffffffffffffffffffffffffff1681526020014281525060015f8a81526020019081526020015f205f8967ffffffffffffffff1667ffffffffffffffff1681526020019081526020015f205f820151815f015f6101000a8154816fffffffffffffffffffffffffffffffff02191690836fffffffffffffffffffffffffffffffff160217905550602082015181600101559050508667ffffffffffffffff16887f4500640d31a72e59d47c122fa62b0ace30d0c34e1aa7bf5dce5d9cf2939dc85d836040516103f69190610f30565b60405180910390a35050505050505050565b5f5f5f9054906101000a900473ffffffffffffffffffffffffffffffffffffffff16905090565b5f5f5f5f5f60015f8881526020019081526020015f205f8767ffffffffffffffff1667ffffffffffffffff1681526020019081526020015f206040518060400160405290815f82015f9054906101000a90046fffffffffffffffffffffffffffffffff166fffffffffffffffffffffffffffffffff166fffffffffffffffffffffffffffffffff16815260200160018201548152505090508686825f0151836020015194509450945094505092959194509250565b6060805f8484905090508067ffffffffffffffff8111156105085761050761076a565b5b6040519080825280602002602001820160405280156105365781602001602082028036833780820191505090505b5092508067ffffffffffffffff8111156105535761055261076a565b5b6040519080825280602002602001820160405280156105815781602001602082028036833780820191505090505b5091505f5f90505b818110156106c7575f60015f8981526020019081526020015f205f8888858181106105b7576105b6610f49565b5b90506020020160208101906105cc9190610f76565b67ffffffffffffffff1667ffffffffffffffff1681526020019081526020015f206040518060400160405290815f82015f9054906101000a90046fffffffffffffffffffffffffffffffff166fffffffffffffffffffffffffffffffff166fffffffffffffffffffffffffffffffff1681526020016001820154815250509050805f015185838151811061066357610662610f49565b5b60200260200101906fffffffffffffffffffffffffffffffff1690816fffffffffffffffffffffffffffffffff168152505080602001518483815181106106ad576106ac610f49565b5b602002602001018181525050508080600101915050610589565b5050935093915050565b5f604051905090565b5f5ffd5b5f5ffd5b5f819050919050565b6106f4816106e2565b81146106fe575f5ffd5b50565b5f8135905061070f816106eb565b92915050565b5f67ffffffffffffffff82169050919050565b61073181610715565b811461073b575f5ffd5b50565b5f8135905061074c81610728565b92915050565b5f5ffd5b5f5ffd5b5f601f19601f8301169050919050565b7f4e487b71000000000000000000000000000000000000000000000000000000005f52604160045260245ffd5b6107a08261075a565b810181811067ffffffffffffffff821117156107bf576107be61076a565b5b80604052505050565b5f6107d16106d1565b90506107dd8282610797565b919050565b5f67ffffffffffffffff8211156107fc576107fb61076a565b5b6108058261075a565b9050602081019050919050565b828183375f83830152505050565b5f61083261082d846107e2565b6107c8565b90508281526020810184848401111561084e5761084d610756565b5b610859848285610812565b509392505050565b5f82601f83011261087557610874610752565b5b8135610885848260208601610820565b91505092915050565b5f5ffd5b5f5ffd5b5f5f83601f8401126108ab576108aa610752565b5b8235905067ffffffffffffffff8111156108c8576108c761088e565b5b6020830191508360018202830111156108e4576108e3610892565b5b9250929050565b5f5f5f5f5f5f60a08789031215610905576109046106da565b5b5f61091289828a01610701565b965050602061092389828a0161073e565b955050604087013567ffffffffffffffff811115610944576109436106de565b5b61095089828a01610861565b945050606087013567ffffffffffffffff811115610971576109706106de565b5b61097d89828a01610861565b935050608087013567ffffffffffffffff81111561099e5761099d6106de565b5b6109aa89828a01610896565b92509250509295509295509295565b5f73ffffffffffffffffffffffffffffffffffffffff82169050919050565b5f819050919050565b5f6109fb6109f66109f1846109b9565b6109d8565b6109b9565b9050919050565b5f610a0c826109e1565b9050919050565b5f610a1d82610a02565b9050919050565b610a2d81610a13565b82525050565b5f602082019050610a465f830184610a24565b92915050565b5f5f60408385031215610a6257610a616106da565b5b5f610a6f85828601610701565b9250506020610a808582860161073e565b9150509250929050565b610a93816106e2565b82525050565b610aa281610715565b82525050565b5f6fffffffffffffffffffffffffffffffff82169050919050565b610acc81610aa8565b82525050565b5f819050919050565b610ae481610ad2565b82525050565b5f608082019050610afd5f830187610a8a565b610b0a6020830186610a99565b610b176040830185610ac3565b610b246060830184610adb565b95945050505050565b5f5f83601f840112610b4257610b41610752565b5b8235905067ffffffffffffffff811115610b5f57610b5e61088e565b5b602083019150836020820283011115610b7b57610b7a610892565b5b9250929050565b5f5f5f60408486031215610b9957610b986106da565b5b5f610ba686828701610701565b935050602084013567ffffffffffffffff811115610bc757610bc66106de565b5b610bd386828701610b2d565b92509250509250925092565b5f81519050919050565b5f82825260208201905092915050565b5f819050602082019050919050565b610c1181610aa8565b82525050565b5f610c228383610c08565b60208301905092915050565b5f602082019050919050565b5f610c4482610bdf565b610c4e8185610be9565b9350610c5983610bf9565b805f5b83811015610c89578151610c708882610c17565b9750610c7b83610c2e565b925050600181019050610c5c565b5085935050505092915050565b5f81519050919050565b5f82825260208201905092915050565b5f819050602082019050919050565b610cc881610ad2565b82525050565b5f610cd98383610cbf565b60208301905092915050565b5f602082019050919050565b5f610cfb82610c96565b610d058185610ca0565b9350610d1083610cb0565b805f5b83811015610d40578151610d278882610cce565b9750610d3283610ce5565b925050600181019050610d13565b5085935050505092915050565b5f6040820190508181035f830152610d658185610c3a565b90508181036020830152610d798184610cf1565b90509392505050565b5f81519050919050565b5f82825260208201905092915050565b8281835e5f83830152505050565b5f610db482610d82565b610dbe8185610d8c565b9350610dce818560208601610d9c565b610dd78161075a565b840191505092915050565b5f6040820190508181035f830152610dfa8185610daa565b90508181036020830152610e0e8184610daa565b90509392505050565b5f610e21826109b9565b9050919050565b610e3181610e17565b8114610e3b575f5ffd5b50565b5f81519050610e4c81610e28565b92915050565b5f60208284031215610e6757610e666106da565b5b5f610e7484828501610e3e565b91505092915050565b5f82825260208201905092915050565b5f610e988385610e7d565b9350610ea5838584610812565b610eae8361075a565b840190509392505050565b5f6020820190508181035f830152610ed2818486610e8d565b90509392505050565b610ee481610aa8565b8114610eee575f5ffd5b50565b5f81519050610eff81610edb565b92915050565b5f60208284031215610f1a57610f196106da565b5b5f610f2784828501610ef1565b91505092915050565b5f602082019050610f435f830184610ac3565b92915050565b7f4e487b71000000000000000000000000000000000000000000000000000000005f52603260045260245ffd5b5f60208284031215610f8b57610f8a6106da565b5b5f610f988482850161073e565b9150509291505056fea264697066735822122051c10c2d9749ca4e6bab2e46f5aa0d89ef8560d82e761c53fedb744ef8371b1a64736f6c634300081e0033",
        "linkReferences": {}
    },
    "methodIdentifiers": {
        "getMetricSelection()": "b3fbe475",
        "getTrustRecord(bytes32,uint64)": "e606ea40",
        "getTrustRecords(bytes32,uint64[])": "f79835c2",
        "processData(bytes32,uint64,string,string,bytes)": "9b0881d6"
    },
    "id": 22
}