{
    "abi": [
        {
            "type": "constructor",
            "inputs": [
                {
                    "name": "metricSelectionAddress",
                    "type": "address",
                    "internalType": "address"
                }
            ],
            "stateMutability": "nonpayable"
        },
        {
            "type": "function",
            "name": "getMetricSelection",
            "inputs": [],
            "outputs": [
                {
                    "name": "",
                    "type": "address",
                    "internalType": "contract MetricSelection"
                }
            ],
            "stateMutability": "view"
        },
        {
            "type": "function",
            "name": "getTrustRecord",
            "inputs": [
                {
                    "name": "logId",
                    "type": "uint64",
                    "internalType": "uint64"
                }
            ],
            "outputs": [
                {
                    "name": "trustScore",
                    "type": "uint256",
                    "internalType": "uint256"
                },
                {
                    "name": "timestamp",
                    "type": "uint256",
                    "internalType": "uint256"
                }
            ],
            "stateMutability": "view"
        },
        {
            "type": "function",
            "name": "processData",
            "inputs": [
                {
                    "name": "logId",
                    "type": "uint64",
                    "internalType": "uint64"
                },
                {
                    "name": "dataType",
                    "type": "string",
                    "internalType": "string"
                },
                {
                    "name": "context",
                    "type": "string",
                    "internalType": "string"
                },
                {
                    "name": "data",
                    "type": "bytes",
                    "internalType": "bytes"
                }
            ],
            "outputs": [],
            "stateMutability": "nonpayable"
        },
        {
            "type": "event",
            "name": "TrustProcessed",
            "inputs": [
                {
                    "name": "logId",
                    "type": "uint64",
                    "indexed": true,
                    "internalType": "uint64"
                },
                {
                    "name": "trustScore",
                    "type": "uint256",
                    "indexed": false,
                    "internalType": "uint256"
                }
            ],
            "anonymous": false
        },
        {
            "type": "error",
            "name": "TrustComputation__IdAlreadyProcessed",
            "inputs": []
        },
        {
            "type": "error",
            "name": "TrustComputation__InvalidData",
            "inputs": []
        },
        {
            "type": "error",
            "name": "TrustComputation__NoTrustPackage",
            "inputs": []
        }
    ],
    "bytecode": {
        "object": "0x608060405234801561000f575f5ffd5b50604051610a8f380380610a8f833981810160405281019061003191906100d4565b805f5f6101000a81548173ffffffffffffffffffffffffffffffffffffffff021916908373ffffffffffffffffffffffffffffffffffffffff160217905550506100ff565b5f5ffd5b5f73ffffffffffffffffffffffffffffffffffffffff82169050919050565b5f6100a38261007a565b9050919050565b6100b381610099565b81146100bd575f5ffd5b50565b5f815190506100ce816100aa565b92915050565b5f602082840312156100e9576100e8610076565b5b5f6100f6848285016100c0565b91505092915050565b6109838061010c5f395ff3fe608060405234801561000f575f5ffd5b506004361061003f575f3560e01c8063b3fbe47514610043578063d12afaed14610061578063e2f69cbe14610092575b5f5ffd5b61004b6100ae565b6040516100589190610460565b60405180910390f35b61007b600480360381019061007691906104c7565b6100d5565b60405161008992919061050a565b60405180910390f35b6100ac60048036038101906100a791906106ca565b610130565b005b5f5f5f9054906101000a900473ffffffffffffffffffffffffffffffffffffffff16905090565b5f5f5f60015f8567ffffffffffffffff1667ffffffffffffffff1681526020019081526020015f206040518060400160405290815f82015481526020016001820154815250509050805f015181602001519250925050915091565b5f5f5f9054906101000a900473ffffffffffffffffffffffffffffffffffffffff1673ffffffffffffffffffffffffffffffffffffffff16631ee9be7c86866040518363ffffffff1660e01b815260040161018c9291906107e6565b602060405180830381865afa1580156101a7573d5f5f3e3d5ffd5b505050506040513d601f19601f820116820180604052508101906101cb9190610856565b90505f73ffffffffffffffffffffffffffffffffffffffff168173ffffffffffffffffffffffffffffffffffffffff1603610232576040517f5ad7e4d500000000000000000000000000000000000000000000000000000000815260040160405180910390fd5b5f60015f8867ffffffffffffffff1667ffffffffffffffff1681526020019081526020015f206001015414610293576040517f69b8db1b00000000000000000000000000000000000000000000000000000000815260040160405180910390fd5b5f83839050036102cf576040517fb9b94a7300000000000000000000000000000000000000000000000000000000815260040160405180910390fd5b5f8173ffffffffffffffffffffffffffffffffffffffff1663e70f791885856040518363ffffffff1660e01b815260040161030b9291906108bd565b602060405180830381865afa158015610326573d5f5f3e3d5ffd5b505050506040513d601f19601f8201168201806040525081019061034a9190610909565b905060405180604001604052808281526020014281525060015f8967ffffffffffffffff1667ffffffffffffffff1681526020019081526020015f205f820151815f0155602082015181600101559050508667ffffffffffffffff167f54a45d51bfbd0ba70296bf35ed5d2765aa15d34787543a976555a8072304e2f8826040516103d59190610934565b60405180910390a250505050505050565b5f73ffffffffffffffffffffffffffffffffffffffff82169050919050565b5f819050919050565b5f61042861042361041e846103e6565b610405565b6103e6565b9050919050565b5f6104398261040e565b9050919050565b5f61044a8261042f565b9050919050565b61045a81610440565b82525050565b5f6020820190506104735f830184610451565b92915050565b5f604051905090565b5f5ffd5b5f5ffd5b5f67ffffffffffffffff82169050919050565b6104a68161048a565b81146104b0575f5ffd5b50565b5f813590506104c18161049d565b92915050565b5f602082840312156104dc576104db610482565b5b5f6104e9848285016104b3565b91505092915050565b5f819050919050565b610504816104f2565b82525050565b5f60408201905061051d5f8301856104fb565b61052a60208301846104fb565b9392505050565b5f5ffd5b5f5ffd5b5f601f19601f8301169050919050565b7f4e487b71000000000000000000000000000000000000000000000000000000005f52604160045260245ffd5b61057f82610539565b810181811067ffffffffffffffff8211171561059e5761059d610549565b5b80604052505050565b5f6105b0610479565b90506105bc8282610576565b919050565b5f67ffffffffffffffff8211156105db576105da610549565b5b6105e482610539565b9050602081019050919050565b828183375f83830152505050565b5f61061161060c846105c1565b6105a7565b90508281526020810184848401111561062d5761062c610535565b5b6106388482856105f1565b509392505050565b5f82601f83011261065457610653610531565b5b81356106648482602086016105ff565b91505092915050565b5f5ffd5b5f5ffd5b5f5f83601f84011261068a57610689610531565b5b8235905067ffffffffffffffff8111156106a7576106a661066d565b5b6020830191508360018202830111156106c3576106c2610671565b5b9250929050565b5f5f5f5f5f608086880312156106e3576106e2610482565b5b5f6106f0888289016104b3565b955050602086013567ffffffffffffffff81111561071157610710610486565b5b61071d88828901610640565b945050604086013567ffffffffffffffff81111561073e5761073d610486565b5b61074a88828901610640565b935050606086013567ffffffffffffffff81111561076b5761076a610486565b5b61077788828901610675565b92509250509295509295909350565b5f81519050919050565b5f82825260208201905092915050565b8281835e5f83830152505050565b5f6107b882610786565b6107c28185610790565b93506107d28185602086016107a0565b6107db81610539565b840191505092915050565b5f6040820190508181035f8301526107fe81856107ae565b9050818103602083015261081281846107ae565b90509392505050565b5f610825826103e6565b9050919050565b6108358161081b565b811461083f575f5ffd5b50565b5f815190506108508161082c565b92915050565b5f6020828403121561086b5761086a610482565b5b5f61087884828501610842565b91505092915050565b5f82825260208201905092915050565b5f61089c8385610881565b93506108a98385846105f1565b6108b283610539565b840190509392505050565b5f6020820190508181035f8301526108d6818486610891565b90509392505050565b6108e8816104f2565b81146108f2575f5ffd5b50565b5f81519050610903816108df565b92915050565b5f6020828403121561091e5761091d610482565b5b5f61092b848285016108f5565b91505092915050565b5f6020820190506109475f8301846104fb565b9291505056fea264697066735822122023f9dfc2692d52fe12703ea617ed79ab6033fcf6c4d8829ca7811af3125f280164736f6c634300081e0033",
        "linkReferences": {}
    },
    "methodIdentifiers": {
        "getMetricSelection()": "b3fbe475",
        "getTrustRecord(uint64)": "d12afaed",
        "processData(uint64,string,string,bytes)": "e2f69cbe"
    },
    "id": 22
}